:100000000C9498020C9458060C94B5020C94B5020A
:100010000C94B5020C94B5020C94B5020C94B50284
:100020000C94B5020C94B5020C94B5020C94B50274
:100030000C94B5020C94B5020C94B5020C94B50264
:100040000C94B5020C94B5020C94B5020C94B50254
:100050000C94B5020C94B5020C94B5020C94B50244
:100060000C94B5020C94B5024E414E494E49545978
:10007000494E46CDCCCC3D0AD7233C17B7D1387773
:10008000CC2B329595E6241FB14F0A000020410089
:1000900000C84200401C4620BCBE4CCA1B0E5AAED3
:1000A000C59D7441542B48545450414354494F4EBC
:1000B0003D300D00220A0D002674696D653D002655
:1000C0006C617469747564653D00266C6F6E67744D
:1000D00069747564653D006D797365727665722E1D
:1000E000636F6D2F7570646174650041542B4854C3
:1000F0005450504152413D2255524C222C2268749A
:1001000074703A2F2F0041542B4854545050415290
:10011000413D22434944222C310D0041542B485487
:100120005450494E49540D002B53415042523A20ED
:10013000312C310041542B53415042523D302C312F
:100140000D0041542B53415042523D322C310D0091
:1001500041542B53415042523D312C310D004154FA
:100160002B53415042523D332C312C2250574422C4
:100170002C223C4D7950617373776F72643E220D6F
:100180000041542B53415042523D332C312C2255C7
:10019000534552222C223C4D79557365726E616D28
:1001A000653E220D0041542B53415042523D332CA9
:1001B000312C2241504E222C22696E7465726E657C
:1001C00074220D003030303030303030303030304C
:1001D00030303030303030000041542B43474E53E4
:1001E0005057523D300D0041542B43474E53484F1A
:1001F000540D0041542B43474E53434F4C440D0084
:1002000041542B43474E53494E460D002B43474E16
:1002100053494E463A20312C312C0041542B434750
:100220004E535057523D310D0041542B4342430D24
:10023000000A47505354494D453D000A4241545429
:100240004552595B6D565D3D00204C415449545513
:1002500044453D00204C4F4E475449545544453D7C
:10026000000D0A002C000D0A20687474703A2F2FBC
:100270006D6170732E676F6F676C652E636F6D2F86
:100280006D6170733F713D0041542B434E45544C9A
:10029000494748543D300D00415426570D00415404
:1002A0002B4950523D393630300D0041542B4353C9
:1002B000434C4B3D300D0041542B4353434C4B3D7D
:1002C000310D0041542B4346554E3D310D004154F4
:1002D0002B4346554E3D340D00220A0D004D4F4430
:1002E000452053544F5050454400414C4552542CE6
:1002F00020504F534954494F4E204348414E4745A3
:100300004420544F203A2020004854545020204D7F
:100310004F4445204143544956415445442E2E20D4
:10032000504C4541534520574149542035204D49B3
:100330004E55544553204245464F5245204E455850
:100340005420434F4D4D414E440A004755415244BD
:10035000204D4F4445204143544956415445442E75
:100360002E20504C454153452057414954203520BB
:100370004D494E55544553204245464F5245204E17
:1003800045585420434F4D4D414E440A004143547B
:100390004956415445442043414C4C532046524F0A
:1003A0004D20004D554C5449504C45204D4541532E
:1003B0005552454D454E545320494E2050524F47BB
:1003C000524553532E2E20504C4541534520574102
:1003D0004954203235204D494E555445532042450D
:1003E000464F5245204E45585420434F4D4D414EA7
:1003F000440A0053494E474C45204D454153555200
:10040000454D454E5420494E2050524F475245537A
:10041000532E2E2E20504C454153452057414954D0
:1004200020372D38204D494E5554455320424546DE
:100430004F5245204E45585420434F4D4D414E4458
:100440000A00434F4D4D414E4420414343455054D3
:1004500045440A00485454500053544F50004755E7
:100460004152440041435449564154450053494E7A
:10047000474C45004D554C544900434D543A0041BA
:10048000542B434E4D493D312C322C302C302C30E6
:100490000D0041542B434D47443D340D0041542B36
:1004A000434D47533D220041542B434D47463D3178
:1004B0000D0041542B43464752493D310D004154F4
:1004C0002B4350494E3D2231313131220D004154F0
:1004D00045300D0041542B4350494E3F0D002B43F6
:1004E00050494E3A2053494D2050494E002B43501D
:1004F000494E3A2052454144590041542B435245FC
:10050000473D300D0041542B435245473F0D002BD2
:10051000435245473A20302C35002B435245473A49
:1005200020302C31004F4B0041540041540D00004D
:1005300011241FBECFEFD8E0DEBFCDBF13E0A0E097
:10054000B1E0E0E9FFE102C005900D92A632B107EB
:10055000D9F723E0A6E2B3E001C01D92A935B207A6
:10056000E1F70E9463060C94C60F0C94000082E031
:100570008093C0001092C5008CE08093C400E1EC31
:10058000F0E0808188608083808180618083E2ECFC
:10059000F0E080818660808308959091C00095FF8F
:1005A000FCCF8093C60008958091C00087FFFCCFE8
:1005B0008091C60008950F931F93CF93DF93EC01B2
:1005C000DC0190E020E0241749F13D91FB01E90FA7
:1005D000F11D8081381320C090E0822F890FFE0129
:1005E000E80FF11D3081092F10E031110BC0FB0124
:1005F00001900020E9F73197E61BF70B0E171F0754
:1006000059F40EC0FB01E00FF11F8081882379F3BC
:100610003813EDCF9F5FE1CF2F5FD5CF80E001C0D2
:1006200081E0DF91CF911F910F910895CF93DF93D8
:10063000EC018991882319F00E94CD02FACFDF9155
:10064000CF910895CF93DF93EC01CE01FE01249169
:10065000222331F02196FC0184910E94CD02F5CF36
:10066000DF91CF910895CF9310925603C6E90E946F
:10067000D402282F30E02A30310579F02D303105B1
:1006800061F0E0915603F0E0E458FD4F80838091E3
:1006900056038F5F809356030DC0809156038823C5
:1006A00049F0E0915603F0E0E458FD4F10821092BB
:1006B000560302C0C150D9F681E0CF910895CF937F
:1006C00010925303C6E90E94D402282F30E02A304A
:1006D000310579F02D30310561F0E0915303F0E000
:1006E000E655FE4F8083809153038F5F80935303C1
:1006F0000DC080915303882349F0E0915303F0E04B
:10070000E655FE4F10821092530302C0C150D9F635
:1007100081E0CF910895109255031092560380E026
:10072000E0915603F0E0E458FD4F2081909156038C
:100730009F5F909356038F5F2A3311F0863981F7BC
:10074000E0915603F0E0E458FD4F2081909156036C
:100750009F5F909356038F5F223211F0863980F3AA
:10076000E0915603F0E0E458FD4F2081909156034C
:100770009F5F90935603E0915503F0E0E859FD4FD9
:100780002083909155039F5F909355038F5F223292
:1007900011F0863928F3E0915503F0E0E959FD4F57
:1007A0001082109255031092560381E00895CF9362
:1007B00010922703C0E00E94D402CF5F8C3219F060
:1007C000C634C9F72BC0C63449F10E94D402CF5FAA
:1007D0008C3211F0C634C9F70E94D402282F30E0C1
:1007E000E0912703F0E0E050FF4F808380912703E2
:1007F0008F5F80932703CF5F2A30310529F02D309A
:10080000310511F0C63440F3E0912703F0E0E150E8
:10081000FF4F10821092270381E001C080E0CF914A
:100820000895CF93109251031092520380E092E00A
:100830000E942203C0E00E94D402CF5F8A3319F0E5
:10084000C431C9F767C0C43109F464C00E94D4023E
:10085000CF5F8C3211F0C639C9F70E94D402CF5F46
:100860008C3211F0C639C8F30E94D402E0915003D3
:10087000F0E0E259FE4F8083909150039F5F909388
:100880005003CF5F8C3211F0C63970F3E091500302
:10089000F0E0E359FE4F1082109250030E94D40200
:1008A000E0915203F0E0EA56FE4F808390915203AC
:1008B0009F5F90935203CF5F8C3211F0C63970F373
:1008C000E0915203F0E0EB56FE4F1082109252037B
:1008D0000E94D402E0915103F0E0EE57FE4F808376
:1008E000909151039F5F90935103CF5F8C3211F031
:1008F000C63970F3E0915103F0E0EF57FE4F1082DC
:10090000109251030E94D402CF5F8C3229F0C63975
:10091000C8F302C080E001C081E0CF910895882330
:1009200061F026E033E14EEA4A95F1F73A95E1F7B6
:100930002A95D1F700C08150F2CF0895CF93DF936D
:1009400080912603813021F080912603853091F437
:1009500081E090E00E948F048BE192E00E942203EC
:1009600082E090E00E948F0483EF91E00E942203D6
:10097000D0E00FC081E090E00E948F04F9CF80E0CA
:1009800092E00E9422030E94330381110BC0D431F4
:10099000E0F4809126038F3F91F38FE090E00E9476
:1009A0008F04EDCF4FE050E06CE072E088E293E01E
:1009B0000E946B0D4AEA68E273E08CE792E00E94C5
:1009C000DB02C82F8130F1F512C082E090E00E9476
:1009D0008F0480912603813041F489ED91E00E94DB
:1009E000220381E090E00E948F04C0E031C045E125
:1009F00050E064EC71E08AE591E00E946B0D45E106
:100A000050E064EC71E086E491E00E946B0D45E1FA
:100A100050E064EC71E082E391E00E946B0D0E9473
:100A2000110482E090E00E948F04809126038130BF
:100A300079F489ED91E00E94220381E090E00E9428
:100A40008F0406C0809126038F3F79F2DF5F9FCF2E
:100A50008C2FDF91CF91089520E12A95F1F700C006
:100A60000895CF938BE295E00E9422030E94330306
:100A700043E050E0882319F065E275E002C068E2C7
:100A800075E088E293E00E946B0D4AEA68E273E049
:100A90008CE792E00E94DB02C1E0813009F0C0E007
:100AA00081E00E948F04CC23E9F281E00E948F0450
:100AB0008EEC94E00E94220381E00E948F0481E08A
:100AC000CF910895CF9382E00E948F0484ED94E04B
:100AD0000E9422030E9433038823A9F34DE050E0D3
:100AE0006DEE74E088E293E00E946B0D4AEA68E2E2
:100AF00073E08CE792E00E94DB02C82F4FE050E0E9
:100B00006EED74E088E293E00E946B0D4AEA68E2C1
:100B100073E08CE792E00E94DB02813049F40E948E
:100B20008F048EEB94E00E94220381E00E948F04E8
:100B3000C13049F681E0CF910895CF93DF9381E0F2
:100B40000E948F0485E095E00E9422030E943303F7
:100B5000811109C081E00E948F0483EC92E00E9421
:100B60002203C8E17CC04BE050E06AE175E088E216
:100B700093E00E946B0D4AEA68E273E08CE792E032
:100B80000E94DB02813011F4C1E075C04BE050E0FF
:100B90006FE075E088E293E00E946B0D4AEA68E23C
:100BA00073E08CE792E00E94DB02813099F6ECCF93
:100BB0004BE050E06AE175E088E293E00E946B0D43
:100BC0004AEA68E273E08CE792E00E94DB02D82FE9
:100BD0004BE050E06FE075E088E293E00E946B0D1F
:100BE0004AEA68E273E08CE792E00E94DB0281301F
:100BF00059F2D13049F281E00E948F048EEC92E0EC
:100C00000E94220381E00E948F0489ED91E00E94FE
:100C1000220381E00E948F0487EB92E00E9422036E
:100C2000DEE18CE30E948F04D150D9F745988BE226
:100C300095E00E94220381E00E948F048BEA92E0FB
:100C40000E94220381E00E948F04459A81E00E9465
:100C50008F0483EC92E00E942203C15061F088E788
:100C60000E948F0485E095E00E9422030E943303D6
:100C7000882399F39DCF8C2FDF91CF91089583B76F
:100C8000817F846083BF83B7816083BF52985A9A03
:100C9000F894E9E6F0E080818D7F808380818E7F0B
:100CA0008083E89A7894889583B78E7F83BF089570
:100CB0001F920F920FB60F921124E8980F900FBE5B
:100CC0000F901F9018951092260352985A9A3D9AA9
:100CD000459A45E150E064EC71E08EE191E00E94BC
:100CE0006B0D45E150E064EC71E08AE591E00E9413
:100CF0006B0D45E150E064EC71E08AE091E00E9408
:100D00006B0D45E150E064EC71E086E491E00E94F7
:100D10006B0D45E150E064EC71E082E391E00E94EC
:100D20006B0D0E94B7028AE00E948F048EEC94E063
:100D30000E94220381E00E948F040E94310581E01D
:100D40000E948F048EE992E00E94220381E00E94BB
:100D50008F0483EC92E00E94220381E00E948F04C2
:100D60008AEF94E00E94220381E00E948F0488E9C8
:100D700092E00E94220383E00E948F040E94620599
:100D800081E00E948F0487EA94E00E94220381E0C0
:100D90000E948F0482E994E00E9422038AE50E9467
:100DA0008F040E949D051EEF0FEFFF24F394109215
:100DB000260381E00E948F0487EA94E00E942203C8
:100DC00081E00E948F048FE794E00E94220381E07B
:100DD0000E948F0489ED91E00E94220381E00E942D
:100DE0008F0487EB92E00E94220382E00E948F042E
:100DF0008091C00087FF03C08091C600F9CF90E8C2
:100E0000892E98EA992E92E1A92EBB24B394809161
:100E1000C00087FD30C00E942C0581E0881A91082F
:100E2000A108B108A1F745988BE295E00E94220342
:100E300081E00E948F048BEA92E00E94220381E00D
:100E40000E948F04459A81E00E948F040E949D05B4
:100E500081E00E948F0487EB92E00E94220381E0F0
:100E60000E948F04109226038091C00087FFC7CF95
:100E70008091C600F9CF0E943303882309F478C219
:100E800045E050E06AE774E088E293E00E946B0D71
:100E90004AEA68E273E08CE792E00E94DB0281306C
:100EA00059F145988BE295E00E94220381E00E946F
:100EB0008F048BEA92E00E94220381E00E948F045B
:100EC000459A81E00E948F040E9462050E949D0560
:100ED00081E00E948F0487EA94E00E94220381E06F
:100EE0000E948F0482E994E00E94220382E00E9423
:100EF0008F04109226035BCF0E945F030E948B0336
:100F00001092260346E050E064E774E088E293E044
:100F10000E946B0D8AEA91E00E94740D4AEA68E231
:100F200073E00E94DB02813009F046C045988BE2F5
:100F300095E00E94220381E00E948F048BEA92E0F8
:100F40000E94220381E00E948F04459A81E00E9462
:100F50008F0487EA94E00E94220381E00E948F04BC
:100F60008DE994E00E94220388E692E00E94160335
:100F700089ED92E00E94220381E00E948F0483EABF
:100F800093E00E9422038AE10E94CD028AE00E943F
:100F90008F0487EA94E00E94220381E00E948F047C
:100FA00082E994E00E94220382E00E948F0485E09F
:100FB00080932603C1E001C0C0E047E050E06DE649
:100FC00074E088E293E00E946B0D8AEA91E00E944F
:100FD000740D4AEA68E273E00E94DB02D82F813088
:100FE00009F044C045988BE295E00E94220381E01D
:100FF0000E948F048BEA92E00E94220381E00E940B
:101000008F04459A81E00E948F0487EA94E00E9451
:10101000220381E00E948F048DE994E00E94220364
:1010200088E692E00E94160389ED92E00E94220376
:1010300081E00E948F0483EF93E00E9422038AE103
:101040000E94CD028AE00E948F0487EA94E00E9409
:10105000220381E00E948F0482E994E00E9422032F
:1010600082E00E948F04D0932603C1E049E050E063
:1010700064E674E088E293E00E946B0D8AEA91E0F6
:101080000E94740D4AEA68E273E00E94DB0281303C
:1010900009F052C045988BE295E00E94220381E05E
:1010A0000E948F048BEA92E00E94220381E00E945A
:1010B0008F04459A81E00E948F0444E150E060E093
:1010C00070E088E692E00E945D0F87EA94E00E945B
:1010D000220381E00E948F048DE994E00E942203A4
:1010E00088E692E00E94160389ED92E00E942203B6
:1010F00081E00E948F048DE893E00E94220388E63D
:1011000092E00E9416038AE10E94CD028AE00E94CA
:101110008F0487EA94E00E94220381E00E948F04FA
:1011200082E994E00E94220382E00E948F041092E0
:101130002603D1E0C0E001C0DC2F46E050E06EE5C0
:1011400074E088E293E00E946B0D8AEA91E00E94CD
:10115000740D4AEA68E273E00E94DB02813009F014
:1011600053C045988BE295E00E94220381E00E94E3
:101170008F048BEA92E00E94220381E00E948F0498
:10118000459A81E00E948F0487EA94E00E9422033E
:1011900081E00E948F048DE994E00E94220388E69A
:1011A00092E00E94160389ED92E00E94220381E002
:1011B0000E948F048BE493E00E9422038AE10E9444
:1011C000CD028AE00E948F0487EA94E00E94220305
:1011D00081E00E948F0482E994E00E94220382E071
:1011E0000E948F04009326038BE192E00E94220369
:1011F00082E00E948F0483EF91E00E94220381E04D
:101200000E948F04D1E0C1E045E050E064E574E065
:1012100088E293E00E946B0D8AEA91E00E94740DCF
:101220004AEA68E273E00E94DB02813009F09AC06A
:1012300045988BE295E00E94220381E00E948F0492
:101240008BEA92E00E94220381E00E948F04459A7B
:1012500081E00E948F0487EA94E00E94220381E0EB
:101260000E948F048DE994E00E94220388E692E0B8
:101270000E94160389ED92E00E94220381E00E9401
:101280008F0489E093E00E9422038AE10E94CD024C
:101290008AE00E948F0487EA94E00E94220381E0A2
:1012A0000E948F0482E994E00E94220382E00E945F
:1012B0008F048BE192E00E94220382E00E948F045F
:1012C00083EF91E00E94220381E00E948F04C3E03B
:1012D00084E391E00E94220385E00E948F0485EA66
:1012E00091E00E94220381E00E948F0481E891E056
:1012F0000E94220381E00E948F048EE591E00E940B
:10130000220383E00E948F0480E591E00E94220383
:1013100085E00E948F0482E491E00E9422030E94F3
:101320003303882391F04CE050E068E271E088E2FA
:1013300093E00E946B0D4AEA68E273E08CE792E06A
:101340000E94DB0291E0813009F090E0C15021F071
:10135000992309F4BDCF03C0913009F028CD109333
:10136000260306C0DD2309F49CCDCC2309F41FCD50
:101370000E949E04813009F088C08BE0E2E8F1E031
:10138000A6E4B1E001900D928A95E1F71092510127
:101390008AE0E6E9F1E0AAE5B1E001900D928A95D4
:1013A000E1F7109264018EE0EEE6F1E0A2E3B1E035
:1013B00001900D928A95E1F71092400180912603E9
:1013C0008F3F09F464C0809126038E3F09F45FC00B
:1013D00081E00E948F0489E292E00E9422030E9431
:1013E000D70381E00E948F0487EA94E00E942203E1
:1013F00081E00E948F048DE994E00E94220388E638
:1014000092E00E94160389ED92E00E94220381E09F
:101410000E948F0484E592E00E94220386E491E01A
:101420000E94160389E492E00E9422038AE591E07B
:101430000E9416038BE392E00E94220380E091E079
:101440000E94160381E392E00E94220382E391E06E
:101450000E94160386E692E00E9422038AE591E04C
:101460000E94160384E692E00E94220382E891E043
:101470000E94160381E692E00E94220381E00E940E
:101480008F048AE10E94CD0202C0C0E001C0C1E029
:101490008EE191E00E94670D4C018AE091E00E948C
:1014A000670D5C01C13009F017C1809126038F3FA1
:1014B00009F0CEC0B401990C880B990B0E94B20CB4
:1014C00020E030E0A9010E94AB0C882309F4C0C0E1
:1014D000B501BB0C880B990B0E94B20C20E030E0E8
:1014E000A9010E94AB0C882309F4B2C08EE191E0FF
:1014F0000E94670DEC018AE591E00E94670DBE0134
:10150000681B790B072E000C880B990B0E94B20CFC
:101510004B015C018AE091E00E94670DEC0186E4DA
:1015200091E00E94670DBE01681B790B072E000C2D
:10153000880B990B0E94B20C2B013C0120E030E09B
:10154000A901C501B4010E94AB0C87FF09C0A50128
:10155000940160E070E0CB010E943E0C4B015C0105
:1015600020E030E0A901C301B2010E94AB0C87FF6B
:1015700009C0A301920160E070E0CB010E943E0C23
:101580002B013C012CE732EF40E35BE3C301B201E6
:101590000E94620D18165CF02CE732EF40E35BE32B
:1015A000C501B4010E94620D18160CF051C081E013
:1015B0000E948F0487EA94E00E94220381E00E9447
:1015C0008F048DE994E00E94220388E692E00E9455
:1015D000160389ED92E00E94220381E00E948F04AD
:1015E0008AEE92E00E94220386E692E00E942203A5
:1015F0008AE591E00E94160384E692E00E942203AD
:1016000086E491E00E94160381E692E00E942203A4
:1016100081E00E948F048AE10E94CD028AE00E944C
:101620008F04F092260389ED91E00E94220381E06D
:101630000E948F0487EA94E00E94220381E00E94C6
:101640008F0482E994E00E94220382E00E948F04CA
:10165000809126038E3F09F03FC081E00E948F04F5
:101660008BE191E00E94220383E00E948F0486E0D8
:1016700091E00E94220382E00E948F048BEE90E0B2
:101680000E94220387ED90E00E9422038AEC90E002
:101690000E94220386E491E00E9416038FEB90E003
:1016A0000E9422038AE591E00E94160388EB90E0F5
:1016B0000E94220382E391E00E94160384EB90E0F3
:1016C0000E94220382E00E948F0483EA90E00E943D
:1016D00022038AE00E948F048AE0EAE5F1E0AEE1AD
:1016E000B1E001900D928A95E1F78BE0E6E4F1E03C
:1016F000AAE0B1E001900D928A95E1F710921501F0
:1017000010922801809126038F3F49F08091260393
:101710008E3F29F08091260381508093260380918B
:101720002603882369F0809126038E3F48F48CE3DA
:101730000E948F048CE30E948F048CE30E948F042C
:1017400080912603811103C08AE00E948F0480915A
:1017500026038F3F29F0809126038E3F09F089C030
:1017600081E00E948F048091C00087FF03C08091B8
:10177000C600F9CF812C85E3982E8CE0A82EB12CE1
:101780000E942C058091C00091E0891A9108A1085F
:10179000B10809F46EC087FFF3CF0E94330388239A
:1017A00009F467C045E050E06AE774E088E293E03E
:1017B0000E946B0D4AEA68E273E08CE792E00E94B7
:1017C000DB02813009F055C00E945F030E948B0349
:1017D00045E050E069E574E088E293E00E946B0D1B
:1017E0008AEA91E00E94740D4AEA68E273E00E947E
:1017F000DB028130F1F587EA94E00E94220381E068
:101800000E948F048DE994E00E94220388E692E012
:101810000E94160389ED92E00E94220381E00E945B
:101820008F048DED92E00E9422038AE10E94CD0296
:101830008AE00E948F0487EA94E00E94220381E0FC
:101840000E948F0482E994E00E94220382E00E94B9
:101850008F0489ED91E00E94220381E00E948F04B1
:101860001092260384E391E00E94220385E00E9407
:101870008F048091260381117BCD99CA5058BB27D4
:10188000AA270E94560C0C94280D0E941A0D38F0BD
:101890000E94210D20F039F49F3F19F426F40C9496
:1018A000170D0EF4E095E7FB0C94110DE92F0E9443
:1018B000390D58F3BA17620773078407950720F0AC
:1018C00079F4A6F50C945B0D0EF4E0950B2EBA2F6F
:1018D000A02D0B01B90190010C01CA01A001112436
:1018E000FF27591B99F0593F50F4503E68F11A16E2
:1018F000F040A22F232F342F4427585FF3CF469573
:1019000037952795A795F0405395C9F77EF41F1694
:10191000BA0B620B730B840BBAF09150A1F0FF0F5E
:10192000BB1F661F771F881FC2F70EC0BA0F621F4A
:10193000731F841F48F4879577956795B795F7953A
:101940009E3F08F0B0CF9395880F08F09927EE0FCF
:101950009795879508950E94ED0C08F481E008950D
:10196000E89409C097FB3EF4909580957095619539
:101970007F4F8F4F9F4F9923A9F0F92F96E9BB27EF
:101980009395F695879577956795B795F111F8CF6B
:10199000FAF4BB0F11F460FF1BC06F5F7F4F8F4FD6
:1019A0009F4F16C0882311F096E911C0772321F0CC
:1019B0009EE8872F762F05C0662371F096E8862F64
:1019C00070E060E02AF09A95660F771F881FDAF7BB
:1019D000880F9695879597F90895990F0008550FE8
:1019E000AA0BE0E8FEEF16161706E807F907C0F0A5
:1019F00012161306E407F50798F0621B730B840BAD
:101A0000950B39F40A2661F0232B242B252B21F486
:101A100008950A2609F4A140A6958FEF811D811D26
:101A2000089597F99F6780E870E060E008959FEF60
:101A300080EC089500240A94161617061806090665
:101A4000089500240A941216130614060506089534
:101A5000092E0394000C11F4882352F0BB0F40F4BC
:101A6000BF2B11F460FF04C06F5F7F4F8F4F9F4FFC
:101A7000089557FD9058440F551F59F05F3F71F07E
:101A80004795880F97FB991F61F09F3F79F08795E5
:101A90000895121613061406551FF2CF4695F1DF6E
:101AA00008C0161617061806991FF1CF86957105FE
:101AB000610508940895E894BB2766277727CB0132
:101AC00097F908950E94ED0C08F48FEF08956627AA
:101AD00077270C947E0DFB01DC0102C005900D926E
:101AE00041505040D8F70895DC016C9161566A313D
:101AF00008F0605E6F5B6D93C1F70895A0E0B0E001
:101B0000E4E8FDE00C94860FEC016B0161157105B2
:101B100019F0FB01918380837E01FFEFEF1AFF0A2A
:101B20000881802F90E00E94CC0E892B11F0E701F4
:101B3000F3CF0D3239F47E0182E0E80EF11C098109
:101B400011E008C00B3229F47E0192E0E90EF11C8D
:101B5000098110E0E701219743E050E060E770E081
:101B6000CE010E94D50E892BC1F4239645E050E0AA
:101B70006BE670E0CE010E94D50E892B09F4259604
:101B8000C114D10419F0F601D183C0831111F6C03C
:101B900060E070E080E89FE7FAC043E050E068E66C
:101BA00070E0CE010E94D50E892B59F4C114D104E6
:101BB00009F4E9C0F2E0EF0EF11CF601F182E082D7
:101BC000E2C020E030E0A901C0E0D0E0F70180ED04
:101BD000A82EA00E89E08A1530F1912F9260B92EBF
:101BE000812F887012FF04C0811124C0219622C069
:101BF00081112197A5E0B0E00E94750FDC01CB01B7
:101C0000880F991FAA1FBB1F9C01AD012A0D311D12
:101C1000411D511D283989E93807480789E15807CE
:101C200048F0166006C09EEFA9120AC013FD40C01E
:101C30001860B12E8FEFE81AF80A00811B2DC6CF6D
:101C4000802F8F7D8534A1F580818D3211F4106154
:101C500006C08B3221F0319661E070E004C08181D2
:101C6000329662E070E080538A3018F0E61BF70B82
:101C70001FC060E070E060389CE079075CF4DB0135
:101C8000AA0FBB1FAA0FBB1F6A0F7B1F660F771F10
:101C9000680F711D3196DF0111978C9180538A3046
:101CA00050F314FF03C0719561957109C60FD71FDA
:101CB00011FF08C0C114D10429F0CF010197F6012A
:101CC00091838083CA01B9010E94B00C212F237037
:101CD000233019F04B015C0106C04B015C01B7FADF
:101CE000B094B7F8B09420E030E0A901C501B40188
:101CF0000E94AB0C882309F43EC0D7FF06C0D195E3
:101D0000C195D10907E810E002C00FE910E06801B1
:101D1000F8E1CF1AD10890E2E92EF12CCE15DF05BB
:101D200074F0F8012591359145915491C501B401A4
:101D30000E94ED0E4B015C01CE19DF09EFCF04507C
:101D40001109F594E7940C151D0541F78A2D880FAC
:101D50008B2D881F8F3F49F020E030E0A901C5019D
:101D6000B4010E94AB0C811106C082E290E0909316
:101D7000580380935703C501B40109C060E070E0C7
:101D800080E89FEF04C060E070E080EC9FE7CDB793
:101D9000DEB7ECE00C94A20F91110C945A0F803234
:101DA00019F089508550C8F70895FB01DC014150B6
:101DB000504088F08D9181341CF08B350CF4805E9E
:101DC000659161341CF06B350CF4605E861B61110B
:101DD00071F3990B0895881BFCCF0E94000F0C949F
:101DE000280D0E941A0D38F00E94210D20F0952335
:101DF00011F00C94110D0C94170D11240C945C0D22
:101E00000E94390D70F3959FC1F3950F50E0551F57
:101E1000629FF001729FBB27F00DB11D639FAA273F
:101E2000F00DB11DAA1F649F6627B00DA11D661F8E
:101E3000829F2227B00DA11D621F739FB00DA11DAF
:101E4000621F839FA00D611D221F749F3327A00D69
:101E5000611D231F849F600D211D822F762F6A2F05
:101E600011249F5750409AF0F1F088234AF0EE0F6A
:101E7000FF1FBB1F661F771F881F91505040A9F797
:101E80009E3F510580F00C94110D0C945C0D5F3F4A
:101E9000E4F3983ED4F3869577956795B795F795D3
:101EA000E7959F5FC1F7FE2B880F911D969587954B
:101EB00097F90895992788270895DC01CB0103C07D
:101EC0002D910E94680F41505040D0F70895262F61
:101ED000F999FECF1FBA92BD81BD20BD0FB6F8940F
:101EE000FA9AF99A0FBE019608950E94B70FA59F1E
:101EF000900DB49F900DA49F800D911D1124089505
:101F00002F923F924F925F926F927F928F929F9209
:101F1000AF92BF92CF92DF92EF92FF920F931F93F7
:101F2000CF93DF93CDB7DEB7CA1BDB0B0FB6F894A8
:101F3000DEBF0FBECDBF09942A88398848885F84E8
:101F40006E847D848C849B84AA84B984C884DF8059
:101F5000EE80FD800C811B81AA81B981CE0FD11D3D
:101F60000FB6F894DEBF0FBECDBFED010895A29F5E
:101F7000B001B39FC001A39F700D811D1124911D5D
:101F8000B29F700D811D1124911D0895F894FFCF0B
:101F90003030303030303030303030303030303041
:101FA0003030303030303030303030303030303031
:101FB0003030303030303030303030303030303021
:101FC0003030303030303030303030303030303011
:101FD0003030303030303030303030303030303001
:101FE00030303030303030303030303030303030F1
:101FF00030303030303030303030303030303030E1
:1020000030303030303030303030303030303030D0
:1020100030303030303030303030303030303030C0
:1020200030303030303030303030303030303030B0
:10203000303030303030303030303132333435368B
:102040003738393031323334353637383930313248
:102050003334353637383930313233343536373832
:102060003930313233343536373839303132333430
:102070003536373839303132333435363738393010
:10208000313233343536373839303132333435360E
:1020900037383930313233343536373839303132F8
:1020A00033343536373839303132333435363738E2
:1020B00039303132333435363738393031323334E0
:1020C00035363738393031323334353637383930C0
:1020D00031323334353637383930313233343536BE
:1020E00037383930313233343536373839303132A8
:1020F0003334353637383930313233343536373892
:10210000393031323334353637383930313233348F
:10211000353637383930313233343536373839306F
:10212000313233343536373839303132333435366D
:102130003738393031323334353637383930313257
:102140003334353637383930313233343536373841
:10215000393031323334353637383930313233343F
:10216000353637383930313233343536373839301F
:10217000313233343536373839303132333435361D
:102180003738393031323334353637383930313207
:1021900033343536373839303132333435363738F1
:1021A00039303132333435363738393031323334EF
:0621B000353637383930E6
:00000001FF
