:100000000C941C020C94C1050C9439020C94390216
:100010000C9439020C9439020C9439020C94390274
:100020000C9439020C9439020C9439020C94390264
:100030000C9439020C9439020C9439020C94390254
:100040000C9439020C9439020C9439020C94390244
:100050000C9439020C9439020C9439020C94390234
:100060000C9439020C9439024E414E494E49545970
:10007000494E46CDCCCC3D0AD7233C17B7D1387773
:10008000CC2B329595E6241FB14F0A000020410089
:1000900000C84200401C4620BCBE4CCA1B0E5AAED3
:1000A000C59D74303030303030303030303030300A
:1000B000303030303030000041542B43474E5350E5
:1000C00057523D300D0041542B43474E53484F5437
:1000D0000D0041542B43474E53434F4C440D0041B8
:1000E000542B43474E53494E460D002B43474E5326
:1000F000494E463A20312C312C0041542B43474E77
:10010000535057523D310D0041542B4342430D0093
:100110000A424154544552595B6D565D3D00204C96
:10012000415449545544453D00204C4F4E47544995
:10013000545544453D000D0A002C000D0A206874FA
:1001400074703A2F2F6D6170732E676F6F676C65D7
:100150002E636F6D2F6D6170733F713D0041542BA5
:10016000434E45544C494748543D300D00415426B8
:10017000570D0041542B4950523D393630300D0057
:1001800041542B4353434C4B3D300D0041542B43C2
:1001900053434C4B3D310D0041542B4346554E3D8E
:1001A000310D0041542B4346554E3D340D00220A7B
:1001B0000D004755415244204D4F44452053544F64
:1001C0005050454400414C4552542C20504F534907
:1001D00054494F4E204348414E47454420544F20F8
:1001E0003A2020004755415244204D4F444520417C
:1001F00043544956415445442E2E20504C454153BA
:100200004520574149542035204D494E55544553BA
:10021000204245464F5245204E45585420434F4DAD
:100220004D414E440A0041435449564154454420EF
:1002300043414C4C532046524F4D20004D554C5499
:1002400049504C45204D4541535552454D454E541E
:100250005320494E2050524F47524553532E2E2083
:10026000504C454153452057414954203235204D8B
:10027000494E55544553204245464F5245204E4520
:10028000585420434F4D4D414E440A0053494E4768
:100290004C45204D4541535552454D454E542049FE
:1002A0004E2050524F47524553532E2E2E20504C25
:1002B00045415345205741495420372D38204D4959
:1002C0004E55544553204245464F5245204E4558C1
:1002D0005420434F4D4D414E440A00434F4D4D4134
:1002E0004E442041434345505445440A0043415243
:1002F00020424154544552592049532044495343C4
:100300004F4E4E45435445440A004341522042411A
:100310005454455259204953205745414B0A0043F4
:1003200041522042415454455259204953204F567E
:1003300045524C4F414445440A004361722042619A
:10034000747465727920766F6C746167652072656C
:100350006164696E67205B565D203D200041434328
:100360000053544F500047554152440041435449B3
:10037000564154450053494E474C45004D554C5449
:100380004900434D543A0041542B434E4D493D31B1
:100390002C322C302C302C300D0041542B434D4747
:1003A000443D340D0041542B434D47533D22004101
:1003B000542B434D47463D310D0041542B43464796
:1003C00052493D310D0041542B4350494E3D22319D
:1003D000313131220D00415445300D0041542B4341
:1003E00050494E3F0D002B4350494E3A2053494D42
:1003F0002050494E002B4350494E3A20524541442B
:10040000590041542B435245473D300D0041542B78
:10041000435245473F0D002B435245473A20302C6D
:1004200035002B435245473A20302C31004F4B00CA
:1004300041540041540D000011241FBECFEFD8E0FD
:10044000DEBFCDBF12E0A0E0B1E0E2E4FFE102C018
:1004500005900D92AE3FB107D9F723E0AEEFB2E0C1
:1004600001C01D92A033B207E1F70E9406060C946A
:100470009F0F0C94000082E08093C0001092C50092
:100480008CE08093C400E1ECF0E0808188608083A0
:10049000808180618083E2ECF0E0808186608083EF
:1004A00008959091C00095FFFCCF8093C6000895F9
:1004B0008091C00087FFFCCF8091C60008950F9304
:1004C0001F93CF93DF93EC01DC0190E020E0241731
:1004D00049F13D91FB01E90FF11D8081381320C0E6
:1004E00090E0822F890FFE01E80FF11D3081092F66
:1004F00010E031110BC0FB0101900020E9F73197AA
:10050000E61BF70B0E171F0759F40EC0FB01E00F97
:10051000F11F8081882379F33813EDCF9F5FE1CFFE
:100520002F5FD5CF80E001C081E0DF91CF911F9197
:100530000F910895CF93DF93EC018991882319F0EF
:100540000E945102FACFDF91CF910895CF93DF93AC
:10055000EC01CE01FE012491222331F02196FC0111
:1005600084910E945102F5CFDF91CF910895CF93EE
:1005700010922D03C6E90E945802282F30E02A303D
:10058000310579F02D30310561F0E0912D03F0E077
:10059000EC5AFD4F808380912D038F5F80932D0354
:1005A0000DC080912D03882349F0E0912D03F0E0E8
:1005B000EC5AFD4F108210922D0302C0C150D9F6A3
:1005C00081E0CF910895CF9310922A03C6E90E944B
:1005D0005802282F30E02A30310579F02D303105CE
:1005E00061F0E0912A03F0E0EE57FE4F80838091A6
:1005F0002A038F5F80932A030DC080912A038823EA
:1006000049F0E0912A03F0E0EE57FE4F108210927D
:100610002A0302C0C150D9F681E0CF91089510920B
:100620002C0310922D0380E0E0912D03F0E0EC5AB2
:10063000FD4F208190912D039F5F90932D038F5F3D
:100640002A3311F0863981F7E0912D03F0E0EC5A5E
:10065000FD4F208190912D039F5F90932D038F5F1D
:10066000223211F0863980F3E0912D03F0E0EC5A4C
:10067000FD4F208190912D039F5F90932D03E0917A
:100680002C03F0E0E05CFD4F208390912C039F5FF2
:1006900090932C038F5F223211F0863928F3E0917A
:1006A0002C03F0E0E15CFD4F108210922C031092BD
:1006B0002D0381E00895CF931092FF02C0E00E94C5
:1006C0005802CF5F8C3219F0C634C9F72BC0C6343C
:1006D00049F10E945802CF5F8C3211F0C634C9F73D
:1006E0000E945802282F30E0E091FF02F0E0E05035
:1006F000FF4F80838091FF028F5F8093FF02CF5F67
:100700002A30310529F02D30310511F0C63440F37F
:10071000E091FF02F0E0E150FF4F10821092FF02E3
:1007200081E001C080E0CF910895CF93109228031B
:10073000109229038FED90E00E94A602C0E00E9473
:100740005802CF5F8A3319F0C431C9F754C0C4319D
:1007500009F451C00E945802CF5F8C3211F0C639A3
:10076000C9F70E945802CF5F8C3211F0C639C8F326
:100770000E945802CF5F8C3211F0C639C8F30E9434
:100780005802E0912903F0E0E259FE4F80839091F6
:1007900029039F5F90932903CF5F8C3211F0C639F4
:1007A00070F3E0912903F0E0E359FE4F10821092BC
:1007B00029030E945802E0912803F0E0E65AFE4F18
:1007C0008083909128039F5F90932803CF5F8C32A2
:1007D00011F0C63970F3E0912803F0E0E75AFE4FBC
:1007E0001082109228030E945802CF5F8C3229F0A9
:1007F000C639C8F302C080E001C081E0CF910895FE
:10080000882361F026E033E14EEA4A95F1F73A9504
:10081000E1F72A95D1F700C08150F2CF0895CF9328
:10082000DF938091FE02813021F08091FE028530BD
:1008300091F481E090E00E9400048AEF90E00E9431
:10084000A60282E090E00E94000482ED90E00E9407
:10085000A602D0E00FC081E090E00E940004F9CF32
:100860008FED90E00E94A6020E94B70281110BC09A
:10087000D431E0F48091FE028F3F91F38FE090E05D
:100880000E940004EDCF4FE050E06BEE70E080E09E
:1008900093E00E944E0D4AEA60E073E084E592E046
:1008A0000E945F02C82F8130B1F512C082E090E053
:1008B0000E9400048091FE02813041F488EB90E0B8
:1008C0000E94A60281E090E00E940004C0E029C0DE
:1008D00045E150E063EA70E086E491E00E944E0D4D
:1008E00045E150E063EA70E082E391E00E944E0D42
:1008F0000E94950382E090E00E9400048091FE0235
:10090000813079F488EB90E00E94A60281E090E0CB
:100910000E94000406C08091FE028F3FB9F2DF5FA3
:10092000A7CF8C2FDF91CF91089520E12A95F1F781
:1009300000C00895CF9383E394E00E94A6020E9432
:10094000B70243E050E0882319F06DE274E002C082
:1009500060E374E080E093E00E944E0D4AEA60E0BC
:1009600073E084E592E00E945F02C1E0813009F00B
:10097000C0E081E00E940004CC23E9F281E00E9403
:10098000000486ED93E00E94A60281E00E9400042C
:1009900081E0CF910895CF9382E00E9400048CED16
:1009A00093E00E94A6020E94B7028823A9F34DE0BB
:1009B00050E065EF73E080E093E00E944E0D4AEA5C
:1009C00060E073E084E592E00E945F02C82F4FE090
:1009D00050E066EE73E080E093E00E944E0D4AEA3C
:1009E00060E073E084E592E00E945F02813049F4A8
:1009F0000E94000486EC93E00E94A60281E00E941F
:100A00000004C13049F681E0CF910895CF93DF9380
:100A100081E00E9400048DE094E00E94A6020E9402
:100A2000B702811109C081E00E94000488E991E0C9
:100A30000E94A602C8E17CC04BE050E062E274E094
:100A400080E093E00E944E0D4AEA60E073E084E5A6
:100A500092E00E945F02813011F4C1E075C04BE06A
:100A600050E067E174E080E093E00E944E0D4AEAB6
:100A700060E073E084E592E00E945F02813099F6C5
:100A8000ECCF4BE050E062E274E080E093E00E9443
:100A90004E0D4AEA60E073E084E592E00E945F0256
:100AA000D82F4BE050E067E174E080E093E00E94D3
:100AB0004E0D4AEA60E073E084E592E00E945F0236
:100AC000813059F2D13049F281E00E94000483EA7A
:100AD00091E00E94A60281E00E94000488EB90E071
:100AE0000E94A60281E00E9400048CE891E00E942E
:100AF000A602DEE18CE30E940004D150D9F74598AC
:100B000083E394E00E94A60281E00E94000480E852
:100B100091E00E94A60281E00E940004459A81E0D3
:100B20000E94000488E991E00E94A602C15061F091
:100B300088E70E9400048DE094E00E94A6020E94D3
:100B4000B702882399F39DCF8C2FDF91CF91089521
:100B500083B7817F846083BF83B7816083BF5298EE
:100B60005A9AF894E9E6F0E080818D7F8083808155
:100B70008E7F8083E89A7894889583B78E7F83BF31
:100B800008951F920F920FB60F921124E8980F90BC
:100B90000FBE0F901F90189598E020E030E08091F4
:100BA0007C00807F816080937C0080917A008064EB
:100BB00080937A0080917A0086FDFCCF4091780086
:100BC00050917900240F351F915049F783E03695F5
:100BD00027958A95E1F7A4EEBCE00E94070C9B01E3
:100BE000AC019AE056954795379527959A95D1F798
:100BF000ADE0B6E10E94160C28EE33E040E050E094
:100C00000E94E50BC90182569D4F08951092FE0285
:100C100052985A9A3D9A459A80917C0080648093BC
:100C20007C0080917A00866880937A0045E150E0EC
:100C300063EA70E08EE191E00E944E0D45E150E0E4
:100C400063EA70E086E491E00E944E0D45E150E0D9
:100C500063EA70E08AE091E00E944E0D45E150E0C9
:100C600063EA70E082E391E00E944E0D0E943B0235
:100C70008AE00E94000486ED93E00E94A60281E0D3
:100C80000E9400040E949A0481E00E94000483E70D
:100C900091E00E94A60281E00E94000488E991E0B0
:100CA0000E94A60281E00E94000482E094E00E947B
:100CB000A60281E00E9400048DE691E00E94A60257
:100CC00083E00E9400040E94CB0481E00E940004A3
:100CD0008FEA93E00E94A60281E00E9400048AE964
:100CE00093E00E94A6028AE50E9400040E94060585
:100CF000C0E1D7E224E6422E512C612C712C1EE279
:100D000022242A9435E0332E1092FE0281E00E94C4
:100D100000048FEA93E00E94A60281E00E94000492
:100D200087E893E00E94A60281E00E94000488EB1D
:100D300090E00E94A60281E00E9400048CE891E00D
:100D40000E94A60282E00E9400048091C00087FFFA
:100D500003C08091C600F9CF90E8C92E98EAD92E39
:100D600092E1E92EFF24F3948091C00087FDA7C093
:100D70000E94950421E0C21AD108E108F108A1F708
:100D8000459883E394E00E94A60281E00E9400045B
:100D900080E891E00E94A60281E00E940004459A4A
:100DA00081E00E9400040E9406050E94CC057C019F
:100DB00080519742813C924108F46EC044E150E07A
:100DC00060E070E08CE292E00E94400F81E00E94BF
:100DD00000048FEA93E00E94A60281E00E940004D2
:100DE00085EA93E00E94A6028CE292E00E949A02B9
:100DF0008EEA91E00E94A60281E00E940004C701F1
:100E0000BE010E94D10B605D60930001BC0180E0D7
:100E100090E028EE33E040E050E00E94E50B205DDA
:100E20002093010110930201A30192010E94E50B9E
:100E3000205D209303011092040181EDE81689E3FF
:100E4000F80620F08FE193E00E94A60299E5E91AE6
:100E50009BE1F90A27EBE2162BE0F20620F48AE088
:100E600093E00E94A6028AE393E00E94A60280E03B
:100E700091E00E949A028AE10E9451028AE00E9457
:100E800000048FEA93E00E94A60281E00E94000421
:100E90008AE993E00E94A60281E00E9400048CE8A7
:100EA00091E00E94A60281E00E9400041092FE02DE
:100EB0008091C00087FF50CF8091C600F9CF0E947B
:100EC000B702882309F451C245E050E062E873E0BC
:100ED00080E093E00E944E0D4AEA60E073E084E512
:100EE00092E00E945F028130C9F0459883E394E06C
:100EF0000E94A60281E00E94000480E891E00E9426
:100F0000A60281E00E940004459A81E00E9400044C
:100F10000E94CB040E94060581E00EC20E94E302FB
:100F20000E940F031092FE0246E050E06CE773E06F
:100F300080E093E00E944E0D82E891E00E94570D00
:100F40004AEA60E073E00E945F02813009F045C028
:100F5000459883E394E00E94A60281E00E94000489
:100F600080E891E00E94A60281E00E940004459A78
:100F700081E00E9400048FEA93E00E94A60281E0D3
:100F80000E94000485EA93E00E94A60280E492E0B9
:100F90000E949A028EEA91E00E94A60281E00E94DD
:100FA00000048CE392E00E94A6028AE10E945102B2
:100FB0008AE00E9400048FEA93E00E94A60281E08A
:100FC0000E9400048AE993E00E94A60282E00E9447
:100FD00000043092FE0201E001C000E047E050E072
:100FE00065E773E080E093E00E944E0D82E891E0B7
:100FF0000E94570D4AEA60E073E00E945F02F82EFB
:1010000081E0F81244C0459883E394E00E94A60270
:1010100081E00E94000480E891E00E94A60281E045
:101020000E940004459A81E00E9400048FEA93E048
:101030000E94A60281E00E94000485EA93E00E94DB
:10104000A60280E492E00E949A028EEA91E00E9459
:10105000A60281E00E9400048CE892E00E94A602B1
:101060008AE10E9451028AE00E9400048FEA93E024
:101070000E94A60281E00E9400048AE993E00E9497
:10108000A60282E00E940004F092FE0201E049E024
:1010900050E06CE673E080E093E00E944E0D82E841
:1010A00091E00E94570D4AEA60E073E00E945F02FF
:1010B000813009F053C0459883E394E00E94A60272
:1010C00081E00E94000480E891E00E94A60281E095
:1010D0000E940004459A81E00E94000444E150E02F
:1010E00060E070E080E492E00E94500F8FEA93E0AD
:1010F0000E94A60281E00E94000485EA93E00E941B
:10110000A60280E492E00E949A028EEA91E00E9498
:10111000A60281E00E94000486E292E00E94A602FC
:1011200080E492E00E949A028AE10E9451028AE0E1
:101130000E9400048FEA93E00E94A60281E00E94D0
:1011400000048AE993E00E94A60282E00E94000463
:101150001092FE02FF24F39400E001C0F02E46E05E
:1011600050E066E673E080E093E00E944E0D82E876
:1011700091E00E94570D4AEA60E073E00E945F022E
:10118000813009F054C0459883E394E00E94A602A0
:1011900081E00E94000480E891E00E94A60281E0C4
:1011A0000E940004459A81E00E9400048FEA93E0C7
:1011B0000E94A60281E00E94000485EA93E00E945A
:1011C000A60280E492E00E949A028EEA91E00E94D8
:1011D000A60281E00E94000484EE91E00E94A60233
:1011E0008AE10E9451028AE00E9400048FEA93E0A3
:1011F0000E94A60281E00E9400048AE993E00E9416
:10120000A60282E00E9400042092FE028AEF90E093
:101210000E94A60282E00E94000482ED90E00E94FB
:10122000A60281E00E940004FF24F39401E044E060
:1012300050E06DE573E080E093E00E944E0D82E89F
:1012400091E00E94570D4AEA60E073E00E945F025D
:10125000813009F084C0459883E394E00E94A6029F
:1012600081E00E94000480E891E00E94A60281E0F3
:101270000E940004459A81E00E9400048FEA93E0F6
:101280000E94A60281E00E94000485EA93E00E9489
:10129000A60280E492E00E949A028EEA91E00E9407
:1012A000A60281E00E9400040E94CC057C0191ED21
:1012B000E91699E3F90620F08FE193E00E94A60277
:1012C000C70189559B41873B9B4018F48AE093E016
:1012D00007C088E5E8168BE1F80620F48DEE92E071
:1012E0000E94A602C701BE010E94D10B605D6093FF
:1012F0000001BC0180E090E028EE33E040E050E0E7
:101300000E94E50B205D2093010110930201A301CF
:1013100092010E94E50B205D2093030110920401CD
:101320008AE393E00E94A60280E091E00E949A0284
:101330008AE10E9451028AE00E9400048FEA93E051
:101340000E94A60281E00E9400048AE993E00E94C4
:10135000A60282E00E9400041092FE02D5CCFF207B
:1013600009F4C3CD002309F4CFCC0E940F048130CF
:1013700009F070C08BE0EAE5F1E0A2E3B1E0019092
:101380000D928A95E1F710923D018AE0EEE6F1E0D8
:10139000A6E4B1E001900D928A95E1F71092500118
:1013A0008091FE028F3F09F457C081E00E94000443
:1013B00088E091E00E94A6020E945B0381E00E9407
:1013C00000048FEA93E00E94A60281E00E940004DC
:1013D00085EA93E00E94A60280E492E00E949A02CD
:1013E0008EEA91E00E94A60281E00E94000489E258
:1013F00091E00E94A60282E391E00E949A028EE1AF
:1014000091E00E94A60286E491E00E949A0280E1A7
:1014100091E00E94A60280E091E00E949A028BE394
:1014200091E00E94A60286E491E00E949A0289E37C
:1014300091E00E94A6028AE591E00E949A0286E36A
:1014400091E00E94A60281E00E9400048AE10E94CD
:10145000510202C000E001C001E08EE191E00E9473
:101460004A0D7C018AE091E00E944A0D6C01013036
:1014700009F0D4C08091FE028F3F09F0CFC0B701C0
:10148000FF0C880B990B0E94950C20E030E0A9011D
:101490000E948E0C882309F4C1C0B601DD0C880BB4
:1014A000990B0E94950C20E030E0A9010E948E0C5F
:1014B000882309F4B3C08EE191E00E944A0D7C01BB
:1014C00086E491E00E944A0DB701681B790B072E54
:1014D000000C880B990B0E94950C6B017C018AE033
:1014E00091E00E944A0D5C0182E391E00E944A0D66
:1014F000B501681B790B072E000C880B990B0E9415
:10150000950C4B015C0120E030E0A901C701B60158
:101510000E948E0C87FF09C0A701960160E070E071
:10152000CB010E94210C6B017C0120E030E0A9017D
:10153000C501B4010E948E0C87FF09C0A50194016A
:1015400060E070E0CB010E94210C4B015C012CE7B4
:1015500032EF40E35BE3C501B4010E94450D18166C
:101560005CF02CE732EF40E35BE3C701B6010E9479
:10157000450D18160CF052C081E00E9400048FEA5D
:1015800093E00E94A60281E00E94000485EA93E0B5
:101590000E94A60280E492E00E949A028EEA91E004
:1015A0000E94A60281E00E94000485EC91E00E9466
:1015B000A6028BE391E00E94A60286E491E00E94DD
:1015C0009A0289E391E00E94A60282E391E00E94E0
:1015D0009A0286E391E00E94A60281E00E94000444
:1015E0008AE10E9451028AE00E94000491E09093F7
:1015F000FE0288EB90E00E94A60281E00E940004B7
:101600008FEA93E00E94A60281E00E9400048AE92A
:1016100093E00E94A60282E00E9400048AE0E6E4D1
:10162000F1E0AEE1B1E001900D928A95E1F78BE037
:10163000E2E3F1E0AAE0B1E001900D928A95E1F7D2
:1016400010921501109228018091FE028F3F29F01F
:101650008091FE0281508093FE028091FE028823D9
:1016600069F08091FE028F3F49F08CE30E940004F4
:101670008CE30E9400048CE30E9400048091FE022F
:10168000811103C08AE00E9400048091FE028F3F16
:1016900009F082C081E00E9400048091C00087FFB1
:1016A00003C08091C600F9CFC12C85E3D82E8CE011
:1016B000E82EF12C0E9495048091C00021E0C21A0E
:1016C000D108E108F10809F467C087FFF3CF0E9451
:1016D000B702882309F460C045E050E062E873E097
:1016E00080E093E00E944E0D4AEA60E073E084E5FA
:1016F00092E00E945F02813009F04EC00E94E30236
:101700000E940F0345E050E061E673E080E093E063
:101710000E944E0D82E891E00E94570D4AEA60E077
:1017200073E00E945F028130B9F58FEA93E00E9476
:10173000A60281E00E94000485EA93E00E94A602CE
:1017400080E492E00E949A028EEA91E00E94A60252
:1017500081E00E94000482EB91E00E94A6028AE1EF
:101760000E9451028AE00E9400048FEA93E00E94E6
:10177000A60281E00E9400048AE993E00E94A6028A
:1017800082E00E94000488EB90E00E94A60281E0C3
:101790000E9400041092FE028091FE028111E5CDAC
:1017A000B3CAAA1BBB1B51E107C0AA1FBB1FA617C8
:1017B000B70710F0A61BB70B881F991F5A95A9F7FA
:1017C00080959095BC01CD010895A1E21A2EAA1B27
:1017D000BB1BFD010DC0AA1FBB1FEE1FFF1FA217E1
:1017E000B307E407F50720F0A21BB30BE40BF50BDE
:1017F000661F771F881F991F1A9469F76095709567
:10180000809590959B01AC01BD01CF010895A29FE9
:10181000B001B39FC001A39F700D811D1124911DC4
:10182000B29F700D811D1124911D08950E94070C17
:10183000A59F900DB49F900DA49F800D911D112424
:1018400008955058BB27AA270E94390C0C940B0D01
:101850000E94FD0C38F00E94040D20F039F49F3FE7
:1018600019F426F40C94FA0C0EF4E095E7FB0C94B2
:10187000F40CE92F0E941C0D58F3BA176207730786
:101880008407950720F079F4A6F50C943E0D0EF42C
:10189000E0950B2EBA2FA02D0B01B90190010C0180
:1018A000CA01A0011124FF27591B99F0593F50F498
:1018B000503E68F11A16F040A22F232F342F4427F0
:1018C000585FF3CF469537952795A795F0405395E8
:1018D000C9F77EF41F16BA0B620B730B840BBAF0B8
:1018E0009150A1F0FF0FBB1F661F771F881FC2F723
:1018F0000EC0BA0F621F731F841F48F48795779537
:101900006795B795F7959E3F08F0B0CF9395880FF0
:1019100008F09927EE0F9795879508950E94D00CAF
:1019200008F481E00895E89409C097FB3EF490958F
:101930008095709561957F4F8F4F9F4F9923A9F0A8
:10194000F92F96E9BB279395F69587957795679537
:10195000B795F111F8CFFAF4BB0F11F460FF1BC07B
:101960006F5F7F4F8F4F9F4F16C0882311F096E90E
:1019700011C0772321F09EE8872F762F05C06623BC
:1019800071F096E8862F70E060E02AF09A95660F75
:10199000771F881FDAF7880F9695879597F908952E
:1019A000990F0008550FAA0BE0E8FEEF1616170670
:1019B000E807F907C0F012161306E407F50798F0D8
:1019C000621B730B840B950B39F40A2661F0232BF1
:1019D000242B252B21F408950A2609F4A140A6956D
:1019E0008FEF811D811D089597F99F6780E870E052
:1019F00060E008959FEF80EC089500240A94161685
:101A0000170618060906089500240A9412161306EC
:101A1000140605060895092E0394000C11F488237A
:101A200052F0BB0F40F4BF2B11F460FF04C06F5F96
:101A30007F4F8F4F9F4F089557FD9058440F551F6C
:101A400059F05F3F71F04795880F97FB991F61F040
:101A50009F3F79F087950895121613061406551FB7
:101A6000F2CF4695F1DF08C0161617061806991F23
:101A7000F1CF86957105610508940895E894BB2718
:101A800066277727CB0197F908950E94D00C08F4B8
:101A90008FEF0895662777270C94610DFB01DC0119
:101AA00002C005900D9241505040D8F70895DC01D6
:101AB0006C9161566A3108F0605E6F5B6D93C1F79F
:101AC0000895A0E0B0E0E7E6FDE00C946E0FEC01B5
:101AD0006B016115710519F0FB01918380837E0113
:101AE000FFEFEF1AFF0A0881802F90E00E94AF0EEF
:101AF000892B11F0E701F3CF0D3239F47E0182E03A
:101B0000E80EF11C098111E008C00B3229F47E01B6
:101B100092E0E90EF11C098110E0E701219743E012
:101B200050E060E770E0CE010E94B80E892BC1F44E
:101B3000239645E050E06BE670E0CE010E94B80EBF
:101B4000892B09F42596C114D10419F0F601D1832B
:101B5000C0831111F6C060E070E080E89FE7FAC032
:101B600043E050E068E670E0CE010E94B80E892B99
:101B700059F4C114D10409F4E9C0F2E0EF0EF11CEC
:101B8000F601F182E082E2C020E030E0A901C0E08D
:101B9000D0E0F70180EDA82EA00E89E08A1530F183
:101BA000912F9260B92E812F887012FF04C081118D
:101BB00024C0219622C081112197A5E0B0E00E94A7
:101BC000160CDC01CB01880F991FAA1FBB1F9C01BB
:101BD000AD012A0D311D411D511D283989E93807F4
:101BE000480789E1580748F0166006C09EEFA91221
:101BF0000AC013FD40C01860B12E8FEFE81AF80A32
:101C000000811B2DC6CF802F8F7D8534A1F580816B
:101C10008D3211F4106106C08B3221F0319661E0F3
:101C200070E004C08181329662E070E080538A30B7
:101C300018F0E61BF70B1FC060E070E060389CE016
:101C400079075CF4DB01AA0FBB1FAA0FBB1F6A0F49
:101C50007B1F660F771F680F711D3196DF0111978B
:101C60008C9180538A3050F314FF03C071956195B5
:101C70007109C60FD71F11FF08C0C114D10429F084
:101C8000CF010197F60191838083CA01B9010E94B7
:101C9000930C212F2370233019F04B015C0106C0F7
:101CA0004B015C01B7FAB094B7F8B09420E030E093
:101CB000A901C501B4010E948E0C882309F43EC01D
:101CC000D7FF06C0D195C195D10907E810E002C041
:101CD0000FE910E06801F8E1CF1AD10890E2E92E8F
:101CE000F12CCE15DF0574F0F80125913591459161
:101CF0005491C501B4010E94D00E4B015C01CE1974
:101D0000DF09EFCF04501109F594E7940C151D0578
:101D100041F78A2D880F8B2D881F8F3F49F020E0D7
:101D200030E0A901C501B4010E948E0C811106C0EA
:101D300082E290E090932F0380932E03C501B401BB
:101D400009C060E070E080E89FEF04C060E070E0F0
:101D500080EC9FE7CDB7DEB7ECE00C948A0F9111D1
:101D60000C943D0F803219F089508550C8F70895C2
:101D7000FB01DC014150504088F08D9181341CF012
:101D80008B350CF4805E659161341CF06B350CF47E
:101D9000605E861B611171F3990B0895881BFCCF5F
:101DA0000E94E30E0C940B0D0E94FD0C38F00E9473
:101DB000040D20F0952311F00C94F40C0C94FA0C03
:101DC00011240C943F0D0E941C0D70F3959FC1F3DC
:101DD000950F50E0551F629FF001729FBB27F00DD9
:101DE000B11D639FAA27F00DB11DAA1F649F66272E
:101DF000B00DA11D661F829F2227B00DA11D621F7D
:101E0000739FB00DA11D621F839FA00D611D221F36
:101E1000749F3327A00D611D231F849F600D211D1A
:101E2000822F762F6A2F11249F5750409AF0F1F09D
:101E300088234AF0EE0FFF1FBB1F661F771F881F06
:101E400091505040A9F79E3F510580F00C94F40C3E
:101E50000C943F0D5F3FE4F3983ED4F3869577955D
:101E60006795B795F795E7959F5FC1F7FE2B880FAC
:101E7000911D9695879597F9089599278827089534
:101E8000DC01CB01FC01F999FECF06C0F2BDE1BD3A
:101E9000F89A319600B40D9241505040B8F7089529
:101EA000DC01CB0103C02D910E945B0F41505040DB
:101EB000D0F70895262FF999FECF1FBA92BD81BDA4
:101EC00020BD0FB6F894FA9AF99A0FBE01960895BC
:101ED0002F923F924F925F926F927F928F929F923A
:101EE000AF92BF92CF92DF92EF92FF920F931F9328
:101EF000CF93DF93CDB7DEB7CA1BDB0B0FB6F894D9
:101F0000DEBF0FBECDBF09942A88398848885F8418
:101F10006E847D848C849B84AA84B984C884DF8089
:101F2000EE80FD800C811B81AA81B981CE0FD11D6D
:101F30000FB6F894DEBF0FBECDBFED010895F89443
:021F4000FFCFD1
:101F4200303030303030303030303030303030308F
:101F5200303030303030303030303030303030307F
:101F6200303030303030303030303030303030306F
:101F7200303030303030303030303030303030305F
:101F8200303030303030303030303030303030304F
:101F9200303030303030303030303030303030303F
:101FA200303030303030303030303030303030302F
:101FB200303030303030303030303030303030301F
:101FC20030303132333435363738393031323334D8
:101FD20035363738393031323334353637383930AF
:101FE20031323334353637383930313233343536AD
:101FF2003738393031323334353637383930313297
:102002003334353637383930313233343536373880
:10201200393031323334353637383930313233347E
:10202200353637383930313233343536373839305E
:10203200313233343536373839303132333435365C
:102042003738393031323334353637383930313246
:102052003334353637383930313233343536373830
:10206200393031323334353637383930313233342E
:10207200353637383930313233343536373839300E
:10208200313233343536373839303132333435360C
:1020920037383930313233343536373839303132F6
:1020A20033343536373839303132333435363738E0
:1020B20039303132333435363738393031323334DE
:1020C20035363738393031323334353637383930BE
:1020D20031323334353637383930313233343536BC
:1020E20037383930313233343536373839303132A6
:1020F2003334353637383930313233343536373890
:10210200393031323334353637383930313233348D
:10211200353637383930313233343536373839306D
:10212200313233343536373839303132333435366B
:0E2132003738393031323334353637383930BA
:00000001FF
