:100000000C9499020C9459060C94B6020C94B60206
:100010000C94B6020C94B6020C94B6020C94B60280
:100020000C94B6020C94B6020C94B6020C94B60270
:100030000C94B6020C94B6020C94B6020C94B60260
:100040000C94B6020C94B6020C94B6020C94B60250
:100050000C94B6020C94B6020C94B6020C94B60240
:100060000C94B6020C94B6024E414E494E49545976
:10007000494E46CDCCCC3D0AD7233C17B7D1387773
:10008000CC2B329595E6241FB14F0A000020410089
:1000900000C84200401C4620BCBE4CCA1B0E5AAED3
:1000A000C59D7441542B48545450414354494F4EBC
:1000B0003D300D00220A0D002674696D653D002655
:1000C0006C617469747564653D00266C6F6E67744D
:1000D00069747564653D006D797365727665722E1D
:1000E000636F6D2F7570646174650041542B4854C3
:1000F0005450504152413D2255524C222C2268749A
:1001000074703A2F2F0041542B4854545050415290
:10011000413D22434944222C310D0041542B485487
:100120005450494E49540D002B53415042523A20ED
:10013000312C310041542B53415042523D302C312F
:100140000D0041542B53415042523D322C310D0091
:1001500041542B53415042523D312C310D004154FA
:100160002B53415042523D332C312C2250574422C4
:100170002C223C4D7950617373776F72643E220D6F
:100180000A0041542B53415042523D332C312C2212
:1001900055534552222C223C4D79557365726E6140
:1001A0006D653E220D0A0041542B53415042523D91
:1001B000332C312C2241504E222C22696E746572F0
:1001C0006E6574220D0A00303030303030303030FF
:1001D00030303030303030303030000041542B433C
:1001E000474E535057523D300D0041542B43474E1C
:1001F00053484F540D0041542B43474E53434F4CEB
:10020000440D0041542B43474E53494E460D002B9D
:1002100043474E53494E463A20312C312C0041542D
:100220002B43474E535057523D310D0041542B4301
:1002300042430D000A47505354494D453D000A4280
:100240004154544552595B6D565D3D00204C41541C
:1002500049545544453D00204C4F4E475449545550
:1002600044453D000D0A002C000D0A20687474708E
:100270003A2F2F6D6170732E676F6F676C652E63F9
:100280006F6D2F6D6170733F713D0041542B434E74
:1002900045544C494748543D300D00415426570DB4
:1002A0000041542B4950523D393630300D004154F5
:1002B0002B4353434C4B3D300D0041542B43534390
:1002C0004C4B3D310D0041542B4346554E3D310DB5
:1002D0000041542B4346554E3D340D00220A0D007B
:1002E0004D4F44452053544F5050454400414C45D8
:1002F00052542C20504F534954494F4E20434841AB
:100300004E47454420544F203A2020004854545032
:1003100020204D4F444520414354495641544544C3
:100320002E2E20504C4541534520574149542035ED
:10033000204D494E55544553204245464F52452085
:100340004E45585420434F4D4D414E440A004755A9
:10035000415244204D4F4445204143544956415455
:1003600045442E2E20504C45415345205741495479
:100370002035204D494E55544553204245464F5255
:1003800045204E45585420434F4D4D414E440A00A0
:100390004143544956415445442043414C4C532019
:1003A00046524F4D20004D554C5449504C45204D20
:1003B0004541535552454D454E545320494E2050CA
:1003C000524F47524553532E2E20504C45415345D2
:1003D0002057414954203235204D494E55544553FC
:1003E000204245464F5245204E45585420434F4DDC
:1003F0004D414E440A0053494E474C45204D45411E
:10040000535552454D454E5420494E2050524F476A
:10041000524553532E2E2E20504C454153452057C4
:1004200041495420372D38204D494E5554455320CD
:100430004245464F5245204E45585420434F4D4D5E
:10044000414E440A00434F4D4D414E4420414343E9
:1004500045505445440A00485454500053544F509A
:1004600000475541524400414354495641544500C8
:1004700053494E474C45004D554C544900434D544B
:100480003A0041542B434E4D493D312C322C302CF7
:10049000302C300D0041542B434D47443D340D006A
:1004A00041542B434D47533D220041542B434D476C
:1004B000463D310D0041542B43464752493D310DD5
:1004C0000041542B4350494E3D2231313131220DF0
:1004D00000415445300D0041542B4350494E3F0DCF
:1004E000002B4350494E3A2053494D2050494E006D
:1004F0002B4350494E3A2052454144590041542B18
:10050000435245473D300D0041542B435245473F30
:100510000D002B435245473A20302C35002B4352D7
:1005200045473A20302C31004F4B00415400415494
:100530000D0011241FBECFEFD8E0DEBFCDBF13E00A
:10054000A0E0B1E0E2E9FFE102C005900D92A63221
:10055000B107D9F723E0A6E2B3E001C01D92A935A7
:10056000B207E1F70E9464060C94C70F0C940000D8
:1005700082E08093C0001092C5008CE08093C4009C
:10058000E1ECF0E0808188608083808180618083FD
:10059000E2ECF0E080818660808308959091C00055
:1005A00095FFFCCF8093C60008958091C00087FF1F
:1005B000FCCF8091C60008950F931F93CF93DF93D4
:1005C000EC01DC0190E020E0241749F13D91FB01B2
:1005D000E90FF11D8081381320C090E0822F890F30
:1005E000FE01E80FF11D3081092F10E031110BC021
:1005F000FB0101900020E9F73197E61BF70B0E177E
:100600001F0759F40EC0FB01E00FF11F8081882302
:1006100079F33813EDCF9F5FE1CF2F5FD5CF80E027
:1006200001C081E0DF91CF911F910F910895CF9389
:10063000DF93EC018991882319F00E94CE02FACF52
:10064000DF91CF910895CF93DF93EC01CE01FE01AE
:100650002491222331F02196FC0184910E94CE0244
:10066000F5CFDF91CF910895CF9310925603C6E94D
:100670000E94D502282F30E02A30310579F02D3044
:10068000310561F0E0915603F0E0E458FD4F8083BE
:10069000809156038F5F809356030DC0809156035F
:1006A000882349F0E0915603F0E0E458FD4F1082B2
:1006B0001092560302C0C150D9F681E0CF9108953F
:1006C000CF9310925303C6E90E94D502282F30E041
:1006D0002A30310579F02D30310561F0E091530376
:1006E000F0E0E655FE4F8083809153038F5F809347
:1006F00053030DC080915303882349F0E0915303C5
:10070000F0E0E655FE4F10821092530302C0C15034
:10071000D9F681E0CF9108951092550310925603B7
:1007200080E0E0915603F0E0E458FD4F2081909185
:1007300056039F5F909356038F5F2A3311F08639DB
:1007400081F7E0915603F0E0E458FD4F208190914D
:1007500056039F5F909356038F5F223211F08639C4
:1007600080F3E0915603F0E0E458FD4F2081909132
:1007700056039F5F90935603E0915503F0E0E859CC
:10078000FD4F2083909155039F5F909355038F5F9A
:10079000223211F0863928F3E0915503F0E0E9594F
:1007A000FD4F1082109255031092560381E0089578
:1007B000CF9310922703C0E00E94D502CF5F8C3206
:1007C00019F0C634C9F72BC0C63449F10E94D502CE
:1007D000CF5F8C3211F0C634C9F70E94D502282FA2
:1007E00030E0E0912703F0E0E050FF4F80838091FC
:1007F00027038F5F80932703CF5F2A30310529F0CD
:100800002D30310511F0C63440F3E0912703F0E0BC
:10081000E150FF4F10821092270381E001C080E079
:10082000CF910895CF93109251031092520383E019
:1008300092E00E942303C0E00E94D502CF5F8A337A
:1008400019F0C431C9F767C0C43109F464C00E940B
:10085000D502CF5F8C3211F0C639C9F70E94D5029C
:10086000CF5F8C3211F0C639C8F30E94D502E091F7
:100870005003F0E0E259FE4F8083909150039F5F58
:1008800090935003CF5F8C3211F0C63970F3E09132
:100890005003F0E0E359FE4F1082109250030E9483
:1008A000D502E0915203F0E0EA56FE4F808390912A
:1008B00052039F5F90935203CF5F8C3211F0C63981
:1008C00070F3E0915203F0E0EB56FE4F108210926D
:1008D00052030E94D502E0915103F0E0EE57FE4F23
:1008E0008083909151039F5F90935103CF5F8C322F
:1008F00011F0C63970F3E0915103F0E0EF57FE4F6D
:100900001082109251030E94D502CF5F8C3229F0E1
:10091000C639C8F302C080E001C081E0CF910895DC
:10092000882361F026E033E14EEA4A95F1F73A95E3
:10093000E1F72A95D1F700C08150F2CF0895CF9307
:10094000DF9380912603813021F08091260385304A
:1009500091F481E090E00E9490048EE192E00E9488
:10096000230382E090E00E94900486EF91E00E94D1
:100970002303D0E00FC081E090E00E949004F9CF03
:1009800083E092E00E9423030E94340381110BC094
:10099000D431E0F4809126038F3F91F38FE090E013
:1009A0000E949004EDCF4FE050E06FE072E088E2EB
:1009B00093E00E946C0D4AEA68E273E08CE792E0F3
:1009C0000E94DC02C82F8130F1F512C082E090E075
:1009D0000E94900480912603813041F48CED91E0D7
:1009E0000E94230381E090E00E949004C0E031C0A7
:1009F00045E150E067EC71E08AE591E00E946C0D02
:100A000045E150E067EC71E086E491E00E946C0DF6
:100A100045E150E067EC71E082E391E00E946C0DEB
:100A20000E94120482E090E00E94900480912603CC
:100A3000813079F48CED91E00E94230381E090E015
:100A40000E94900406C0809126038F3F79F2DF5FF9
:100A50009FCF8C2FDF91CF91089520E12A95F1F758
:100A600000C00895CF938EE295E00E9423030E9478
:100A7000340343E050E0882319F068E275E002C0D7
:100A80006BE275E088E293E00E946C0D4AEA68E24E
:100A900073E08CE792E00E94DC02C1E0813009F053
:100AA000C0E081E00E949004CC23E9F281E00E9442
:100AB000900481ED94E00E94230381E00E94900461
:100AC00081E0CF910895CF9382E00E94900487ED5A
:100AD00094E00E9423030E9434038823A9F34DE08D
:100AE00050E060EF74E088E293E00E946C0D4AEA07
:100AF00068E273E08CE792E00E94DC02C82F4FE0CE
:100B000050E061EE74E088E293E00E946C0D4AEAE6
:100B100068E273E08CE792E00E94DC02813049F4E5
:100B20000E94900481EC94E00E94230381E00E94E3
:100B30009004C13049F681E0CF910895CF93DF93BF
:100B400081E00E94900488E095E00E9423030E94C7
:100B50003403811109C081E00E94900486EC92E088
:100B60000E942303C8E17CC04BE050E06DE175E0DA
:100B700088E293E00E946C0D4AEA68E273E08CE739
:100B800092E00E94DC02813011F4C1E075C04BE0BC
:100B900050E062E175E088E293E00E946C0D4AEA61
:100BA00068E273E08CE792E00E94DC02813099F603
:100BB000ECCF4BE050E06DE175E088E293E00E94FD
:100BC0006C0D4AEA68E273E08CE792E00E94DC0276
:100BD000D82F4BE050E062E175E088E293E00E949C
:100BE0006C0D4AEA68E273E08CE792E00E94DC0256
:100BF000813059F2D13049F281E00E94900481EDB8
:100C000092E00E94230381E00E9490048CED91E029
:100C10000E94230381E00E9490048AEB92E00E94EC
:100C20002303DEE18CE30E949004D150D9F745986C
:100C30008EE295E00E94230381E00E9490048EEAF8
:100C400092E00E94230381E00E949004459A81E093
:100C50000E94900486EC92E00E942303C15061F050
:100C600088E70E94900488E095E00E9423030E9498
:100C70003403882399F39DCF8C2FDF91CF91089572
:100C800083B7817F846083BF83B7816083BF5298BD
:100C90005A9AF894E9E6F0E080818D7F8083808124
:100CA0008E7F8083E89A7894889583B78E7F83BF00
:100CB00008951F920F920FB60F921124E8980F908B
:100CC0000FBE0F901F9018951092260352985A9AB3
:100CD0003D9A459A45E150E067EC71E08EE191E084
:100CE0000E946C0D45E150E067EC71E08AE591E00F
:100CF0000E946C0D45E150E067EC71E08AE091E004
:100D00000E946C0D45E150E067EC71E086E491E0F3
:100D10000E946C0D45E150E067EC71E082E391E0E8
:100D20000E946C0D0E94B8028AE00E94900481ED3E
:100D300094E00E94230381E00E9490040E94320507
:100D400081E00E94900481EA92E00E94230381E006
:100D50000E94900486EC92E00E94230381E00E94AE
:100D600090048DEF94E00E94230381E00E949004A0
:100D70008BE992E00E94230383E00E9490040E948A
:100D8000630581E00E9490048AEA94E00E942303B4
:100D900081E00E94900485E994E00E9423038AE5A3
:100DA0000E9490040E949E051EEF0FEFFF24F39413
:100DB0001092260381E00E9490048AEA94E00E9447
:100DC000230381E00E94900482E894E00E942303C0
:100DD00081E00E9490048CED91E00E94230381E069
:100DE0000E9490048AEB92E00E94230382E00E941A
:100DF00090048091C00087FF03C08091C600F9CFA6
:100E000090E8892E98EA992E92E1A92EBB24B394FA
:100E10008091C00087FD30C00E942D0581E0881AB6
:100E20009108A108B108A1F745988EE295E00E94CB
:100E3000230381E00E9490048EEA92E00E94230343
:100E400081E00E949004459A81E00E9490040E94F3
:100E50009E0581E00E9490048AEB92E00E942303A9
:100E600081E00E949004109226038091C00087FFC9
:100E7000C7CF8091C600F9CF0E943403882309F4BC
:100E800078C245E050E06DE774E088E293E00E94AC
:100E90006C0D4AEA68E273E08CE792E00E94DC02A3
:100EA000813059F145988EE295E00E94230381E05C
:100EB0000E9490048EEA92E00E94230381E00E9447
:100EC0009004459A81E00E9490040E9463050E946C
:100ED0009E0581E00E9490048AEA94E00E94230328
:100EE00081E00E94900485E994E00E94230382E05F
:100EF0000E949004109226035BCF0E9460030E9420
:100F00008C031092260346E050E067E774E088E225
:100F100093E00E946C0D8AEA91E00E94750D4AEA06
:100F200068E273E00E94DC02813009F046C0459817
:100F30008EE295E00E94230381E00E9490048EEAF5
:100F400092E00E94230381E00E949004459A81E090
:100F50000E9490048AEA94E00E94230381E00E94A8
:100F6000900480EA94E00E94230388E692E00E94C5
:100F700017038CED92E00E94230381E00E9490040D
:100F800086EA93E00E9423038AE10E94CE028AE06F
:100F90000E9490048AEA94E00E94230381E00E9468
:100FA000900485E994E00E94230382E00E9490046B
:100FB00085E080932603C1E001C0C0E047E050E037
:100FC00060E774E088E293E00E946C0D8AEA91E0A9
:100FD0000E94750D4AEA68E273E00E94DC02D82F95
:100FE000813009F044C045988EE295E00E942303C9
:100FF00081E00E9490048EEA92E00E94230381E047
:101000000E949004459A81E00E9490048AEA94E04C
:101010000E94230381E00E94900480EA94E00E94F1
:10102000230388E692E00E9417038CED92E00E9471
:10103000230381E00E94900486EF93E00E94230343
:101040008AE10E94CE028AE00E9490048AEA94E03B
:101050000E94230381E00E94900485E994E00E94AD
:10106000230382E00E949004D0932603C1E049E06C
:1010700050E067E674E088E293E00E946C0D8AEA33
:1010800091E00E94750D4AEA68E273E00E94DC027A
:10109000813009F052C045988EE295E00E9423030A
:1010A00081E00E9490048EEA92E00E94230381E096
:1010B0000E949004459A81E00E94900444E150E02F
:1010C00060E070E088E692E00E945E0F8AEA94E0B9
:1010D0000E94230381E00E94900480EA94E00E9431
:1010E000230388E692E00E9417038CED92E00E94B1
:1010F000230381E00E94900480E993E00E9423038F
:1011000088E692E00E9417038AE10E94CE028AE0FC
:101110000E9490048AEA94E00E94230381E00E94E6
:10112000900485E994E00E94230382E00E949004E9
:1011300010922603D1E0C0E001C0DC2F46E050E071
:1011400061E674E088E293E00E946C0D8AEA91E027
:101150000E94750D4AEA68E273E00E94DC02813069
:1011600009F053C045988EE295E00E94230381E088
:101170000E9490048EEA92E00E94230381E00E9484
:101180009004459A81E00E9490048AEA94E00E94CB
:10119000230381E00E94900480EA94E00E942303EC
:1011A00088E692E00E9417038CED92E00E942303F0
:1011B00081E00E9490048EE493E00E9423038AE180
:1011C0000E94CE028AE00E9490048AEA94E00E9483
:1011D000230381E00E94900485E994E00E942303A8
:1011E00082E00E949004009326038EE192E00E9428
:1011F000230382E00E94900486EF91E00E94230383
:1012000081E00E949004D1E0C1E045E050E067E554
:1012100074E088E293E00E946C0D8AEA91E00E94FB
:10122000750D4AEA68E273E00E94DC02813009F041
:101230009AC045988EE295E00E94230381E00E94C7
:1012400090048EEA92E00E94230381E00E949004C1
:10125000459A81E00E9490048AEA94E00E94230368
:1012600081E00E94900480EA94E00E94230388E6D3
:1012700092E00E9417038CED92E00E94230381E02C
:101280000E9490048CE093E00E9423038AE10E9474
:10129000CE028AE00E9490048AEA94E00E9423032E
:1012A00081E00E94900485E994E00E94230382E09B
:1012B0000E9490048EE192E00E94230382E00E944B
:1012C000900486EF91E00E94230381E00E94900445
:1012D000C3E084E391E00E94230385E00E94900430
:1012E00087EA91E00E94230381E00E94900482E853
:1012F00091E00E94230381E00E9490048EE591E03A
:101300000E94230383E00E94900480E591E00E9404
:10131000230385E00E94900482E491E00E9423036D
:101320000E943403882391F04CE050E068E271E0C1
:1013300088E293E00E946C0D4AEA68E273E08CE771
:1013400092E00E94DC0291E0813009F090E0C1500F
:1013500021F0992309F4BDCF03C0913009F028CDC5
:101360001093260306C0DD2309F49CCDCC2309F499
:101370001FCD0E949F04813009F088C08BE0E2E815
:10138000F1E0A6E4B1E001900D928A95E1F71092A8
:1013900051018AE0E6E9F1E0AAE5B1E001900D92A1
:1013A0008A95E1F7109264018EE0EEE6F1E0A2E3A7
:1013B000B1E001900D928A95E1F710924001809181
:1013C00026038F3F09F464C0809126038E3F09F401
:1013D0005FC081E00E9490048CE292E00E942303AF
:1013E0000E94D80381E00E9490048AEA94E00E945F
:1013F000230381E00E94900480EA94E00E9423038A
:1014000088E692E00E9417038CED92E00E9423038D
:1014100081E00E94900487E592E00E94230386E425
:1014200091E00E9417038CE492E00E9423038AE576
:1014300091E00E9417038EE392E00E94230380E074
:1014400091E00E94170384E392E00E94230382E369
:1014500091E00E94170389E692E00E9423038AE547
:1014600091E00E94170387E692E00E94230382E83E
:1014700091E00E94170384E692E00E94230381E03A
:101480000E9490048AE10E94CE0202C0C0E001C026
:10149000C1E08EE191E00E94680D4C018AE091E08C
:1014A0000E94680D5C01C13009F017C180912603CC
:1014B0008F3F09F0CEC0B401990C880B990B0E94A4
:1014C000B30C20E030E0A9010E94AC0C882309F4A1
:1014D000C0C0B501BB0C880B990B0E94B30C20E077
:1014E00030E0A9010E94AC0C882309F4B2C08EE15F
:1014F00091E00E94680DEC018AE591E00E94680D80
:10150000BE01681B790B072E000C880B990B0E94FB
:10151000B30C4B015C018AE091E00E94680DEC0184
:1015200086E491E00E94680DBE01681B790B072ECE
:10153000000C880B990B0E94B30C2B013C0120E09E
:1015400030E0A901C501B4010E94AC0C87FF09C0BD
:10155000A501940160E070E0CB010E943F0C4B01BB
:101560005C0120E030E0A901C301B2010E94AC0C93
:1015700087FF09C0A301920160E070E0CB010E94E7
:101580003F0C2B013C012CE732EF40E35BE3C3014E
:10159000B2010E94630D18165CF02CE732EF40E3B5
:1015A0005BE3C501B4010E94630D18160CF051C035
:1015B00081E00E9490048AEA94E00E94230381E083
:1015C0000E94900480EA94E00E94230388E692E05F
:1015D0000E9417038CED92E00E94230381E00E9499
:1015E00090048DEE92E00E94230389E692E00E942F
:1015F00023038AE591E00E94170387E692E00E94A8
:10160000230386E491E00E94170384E692E00E949F
:10161000230381E00E9490048AE10E94CE028AE0C6
:101620000E949004F09226038CED91E00E94230327
:1016300081E00E9490048AEA94E00E94230381E002
:101640000E94900485E994E00E94230382E00E94B6
:101650009004809126038E3F09F03FC081E00E94F4
:1016600090048BE191E00E94230383E00E949004A8
:1016700086E091E00E94230382E00E9490048BEEBA
:1016800090E00E94230387ED90E00E9423038AEC00
:1016900090E00E94230386E491E00E9417038FEB01
:1016A00090E00E9423038AE591E00E94170388EBF3
:1016B00090E00E94230382E391E00E94170384EBF1
:1016C00090E00E94230382E00E94900483EA90E06D
:1016D0000E9423038AE00E9490048AE0EAE5F1E098
:1016E000AEE1B1E001900D928A95E1F78BE0E6E47E
:1016F000F1E0AAE0B1E001900D928A95E1F7109235
:10170000150110922801809126038F3F49F08091A6
:1017100026038E3F29F08091260381508093260373
:1017200080912603882369F0809126038E3F48F438
:101730008CE30E9490048CE30E9490048CE30E944E
:10174000900480912603811103C08AE00E949004D6
:10175000809126038F3F29F0809126038E3F09F068
:1017600089C081E00E9490048091C00087FF03C07F
:101770008091C600F9CF812C85E3982E8CE0A82EAD
:10178000B12C0E942D058091C00091E0891A91082A
:10179000A108B10809F46EC087FFF3CF0E9434039B
:1017A000882309F467C045E050E06DE774E088E203
:1017B00093E00E946C0D4AEA68E273E08CE792E0E5
:1017C0000E94DC02813009F055C00E9460030E9433
:1017D0008C0345E050E06CE574E088E293E00E9401
:1017E0006C0D8AEA91E00E94750D4AEA68E273E0A6
:1017F0000E94DC028130F1F58AEA94E00E94230322
:1018000081E00E94900480EA94E00E94230388E62D
:1018100092E00E9417038CED92E00E94230381E086
:101820000E94900480EE92E00E9423038AE10E94CD
:10183000CE028AE00E9490048AEA94E00E94230388
:1018400081E00E94900485E994E00E94230382E0F5
:101850000E9490048CED91E00E94230381E00E949D
:1018600090041092260384E391E00E94230385E014
:101870000E9490048091260381117BCD99CA505813
:10188000BB27AA270E94570C0C94290D0E941B0D00
:1018900038F00E94220D20F039F49F3F19F426F40D
:1018A0000C94180D0EF4E095E7FB0C94120DE92F43
:1018B0000E943A0D58F3BA17620773078407950719
:1018C00020F079F4A6F50C945C0D0EF4E0950B2E47
:1018D000BA2FA02D0B01B90190010C01CA01A00182
:1018E0001124FF27591B99F0593F50F4503E68F1DD
:1018F0001A16F040A22F232F342F4427585FF3CF1E
:10190000469537952795A795F0405395C9F77EF4EE
:101910001F16BA0B620B730B840BBAF09150A1F037
:10192000FF0FBB1F661F771F881FC2F70EC0BA0FBD
:10193000621F731F841F48F4879577956795B79545
:10194000F7959E3F08F0B0CF9395880F08F0992740
:10195000EE0F9795879508950E94EE0C08F481E0AC
:101960000895E89409C097FB3EF490958095709592
:1019700061957F4F8F4F9F4F9923A9F0F92F96E9DB
:10198000BB279395F695879577956795B795F11150
:10199000F8CFFAF4BB0F11F460FF1BC06F5F7F4FED
:1019A0008F4F9F4F16C0882311F096E911C07723FF
:1019B00021F09EE8872F762F05C0662371F096E808
:1019C000862F70E060E02AF09A95660F771F881FD7
:1019D000DAF7880F9695879597F90895990F00087B
:1019E000550FAA0BE0E8FEEF16161706E807F907F1
:1019F000C0F012161306E407F50798F0621B730B8C
:101A0000840B950B39F40A2661F0232B242B252B0C
:101A100021F408950A2609F4A140A6958FEF811DAF
:101A2000811D089597F99F6780E870E060E0089550
:101A30009FEF80EC089500240A94161617061806E6
:101A40000906089500240A941216130614060506C2
:101A50000895092E0394000C11F4882352F0BB0F53
:101A600040F4BF2B11F460FF04C06F5F7F4F8F4FB6
:101A70009F4F089557FD9058440F551F59F05F3FF1
:101A800071F04795880F97FB991F61F09F3F79F0A0
:101A900087950895121613061406551FF2CF469522
:101AA000F1DF08C0161617061806991FF1CF8695A4
:101AB0007105610508940895E894BB276627772788
:101AC000CB0197F908950E94EE0C08F48FEF08956A
:101AD000662777270C947F0DFB01DC0102C005907F
:101AE0000D9241505040D8F70895DC016C91615639
:101AF0006A3108F0605E6F5B6D93C1F70895A0E0F6
:101B0000B0E0E5E8FDE00C94870FEC016B01611596
:101B1000710519F0FB01918380837E01FFEFEF1ABD
:101B2000FF0A0881802F90E00E94CD0E892B11F0D2
:101B3000E701F3CF0D3239F47E0182E0E80EF11CAB
:101B4000098111E008C00B3229F47E0192E0E90E10
:101B5000F11C098110E0E701219743E050E060E7C4
:101B600070E0CE010E94D60E892BC1F4239645E089
:101B700050E06BE670E0CE010E94D60E892B09F48E
:101B80002596C114D10419F0F601D183C083111137
:101B9000F6C060E070E080E89FE7FAC043E050E004
:101BA00068E670E0CE010E94D60E892B59F4C1146C
:101BB000D10409F4E9C0F2E0EF0EF11CF601F18264
:101BC000E082E2C020E030E0A901C0E0D0E0F7010F
:101BD00080EDA82EA00E89E08A1530F1912F926039
:101BE000B92E812F887012FF04C0811124C0219664
:101BF00022C081112197A5E0B0E00E94760FDC01A0
:101C0000CB01880F991FAA1FBB1F9C01AD012A0D94
:101C1000311D411D511D283989E93807480789E1DF
:101C2000580748F0166006C09EEFA9120AC013FDBF
:101C300040C01860B12E8FEFE81AF80A00811B2D02
:101C4000C6CF802F8F7D8534A1F580818D3211F430
:101C5000106106C08B3221F0319661E070E004C063
:101C60008181329662E070E080538A3018F0E61B82
:101C7000F70B1FC060E070E060389CE079075CF40F
:101C8000DB01AA0FBB1FAA0FBB1F6A0F7B1F660FCA
:101C9000771F680F711D3196DF0111978C9180536A
:101CA0008A3050F314FF03C0719561957109C60F16
:101CB000D71F11FF08C0C114D10429F0CF0101972B
:101CC000F60191838083CA01B9010E94B10C212FD2
:101CD0002370233019F04B015C0106C04B015C01FD
:101CE000B7FAB094B7F8B09420E030E0A901C5018C
:101CF000B4010E94AC0C882309F43EC0D7FF06C093
:101D0000D195C195D10907E810E002C00FE910E0B4
:101D10006801F8E1CF1AD10890E2E92EF12CCE1536
:101D2000DF0574F0F8012591359145915491C50175
:101D3000B4010E94EE0E4B015C01CE19DF09EFCF1A
:101D400004501109F594E7940C151D0541F78A2DEF
:101D5000880F8B2D881F8F3F49F020E030E0A901CC
:101D6000C501B4010E94AC0C811106C082E290E072
:101D70009093580380935703C501B40109C060E0F4
:101D800070E080E89FEF04C060E070E080EC9FE7C7
:101D9000CDB7DEB7ECE00C94A30F91110C945B0F60
:101DA000803219F089508550C8F70895FB01DC0195
:101DB0004150504088F08D9181341CF08B350CF4EB
:101DC000805E659161341CF06B350CF4605E861B9F
:101DD000611171F3990B0895881BFCCF0E94010FCC
:101DE0000C94290D0E941B0D38F00E94220D20F04A
:101DF000952311F00C94120D0C94180D11240C94D1
:101E00005D0D0E943A0D70F3959FC1F3950F50E060
:101E1000551F629FF001729FBB27F00DB11D639F9C
:101E2000AA27F00DB11DAA1F649F6627B00DA11D42
:101E3000661F829F2227B00DA11D621F739FB00DE8
:101E4000A11D621F839FA00D611D221F749F332758
:101E5000A00D611D231F849F600D211D822F762FF1
:101E60006A2F11249F5750409AF0F1F088234AF0CE
:101E7000EE0FFF1FBB1F661F771F881F915050403A
:101E8000A9F79E3F510580F00C94120D0C945D0D46
:101E90005F3FE4F3983ED4F3869577956795B795C1
:101EA000F795E7959F5FC1F7FE2B880F911D9695DB
:101EB000879597F90895992788270895DC01CB0124
:101EC00003C02D910E94690F41505040D0F70895F2
:101ED000262FF999FECF1FBA92BD81BD20BD0FB646
:101EE000F894FA9AF99A0FBE019608950E94B80FD5
:101EF000A59F900DB49F900DA49F800D911D11245E
:101F000008952F923F924F925F926F927F928F929D
:101F10009F92AF92BF92CF92DF92EF92FF920F9378
:101F20001F93CF93DF93CDB7DEB7CA1BDB0B0FB682
:101F3000F894DEBF0FBECDBF09942A88398848883F
:101F40005F846E847D848C849B84AA84B984C884D5
:101F5000DF80EE80FD800C811B81AA81B981CE0FCC
:101F6000D11D0FB6F894DEBF0FBECDBFED010895B1
:101F7000A29FB001B39FC001A39F700D811D1124CA
:101F8000911DB29F700D811D1124911D0895F8942B
:021F9000FFCF81
:101F9200303030303030303030303030303030303F
:101FA200303030303030303030303030303030302F
:101FB200303030303030303030303030303030301F
:101FC200303030303030303030303030303030300F
:101FD20030303030303030303030303030303030FF
:101FE20030303030303030303030303030303030EF
:101FF20030303030303030303030303030303030DF
:1020020030303030303030303030303030303030CE
:1020120030303030303030303030303030303030BE
:1020220030303030303030303030303030303030AE
:102032003030303030303030303031323334353689
:102042003738393031323334353637383930313246
:102052003334353637383930313233343536373830
:10206200393031323334353637383930313233342E
:10207200353637383930313233343536373839300E
:10208200313233343536373839303132333435360C
:1020920037383930313233343536373839303132F6
:1020A20033343536373839303132333435363738E0
:1020B20039303132333435363738393031323334DE
:1020C20035363738393031323334353637383930BE
:1020D20031323334353637383930313233343536BC
:1020E20037383930313233343536373839303132A6
:1020F2003334353637383930313233343536373890
:10210200393031323334353637383930313233348D
:10211200353637383930313233343536373839306D
:10212200313233343536373839303132333435366B
:102132003738393031323334353637383930313255
:10214200333435363738393031323334353637383F
:10215200393031323334353637383930313233343D
:10216200353637383930313233343536373839301D
:10217200313233343536373839303132333435361B
:102182003738393031323334353637383930313205
:1021920033343536373839303132333435363738EF
:1021A20039303132333435363738393031323334ED
:0621B200353637383930E4
:00000001FF
