:100000000C949C020C945C060C94B9020C94B902FA
:100010000C94B9020C94B9020C94B9020C94B90274
:100020000C94B9020C94B9020C94B9020C94B90264
:100030000C94B9020C94B9020C94B9020C94B90254
:100040000C94B9020C94B9020C94B9020C94B90244
:100050000C94B9020C94B9020C94B9020C94B90234
:100060000C94B9020C94B9024E414E494E49545970
:10007000494E46CDCCCC3D0AD7233C17B7D1387773
:10008000CC2B329595E6241FB14F0A000020410089
:1000900000C84200401C4620BCBE4CCA1B0E5AAED3
:1000A000C59D7441542B48545450414354494F4EBC
:1000B0003D300D0A00220A0D002674696D653D0071
:1000C000266C617469747564653D00266C6F6E679B
:1000D0007469747564653D006D79736572766572D7
:1000E0002E636F6D2F7570646174650041542B48E9
:1000F000545450504152413D2255524C222C2268BA
:100100007474703A2F2F0041542B4854545050416E
:1001100052413D22434944222C310D0A0041542BC7
:1001200048545450494E49540D0A002B53415042F3
:10013000523A20312C310041542B53415042523D10
:10014000302C310D0A0041542B53415042523D3264
:100150002C310D0A0041542B53415042523D312C59
:10016000310D0A0041542B53415042523D332C3142
:100170002C22505744222C223C4D795061737377C6
:100180006F72643E220D0A0041542B53415042527B
:100190003D332C312C2255534552222C223C4D7993
:1001A000557365726E616D653E220D0A0041542BD8
:1001B00053415042523D332C312C2241504E222C7F
:1001C00022696E7465726E6574220D0A00303030DB
:1001D000303030303030303030303030303030301F
:1001E000000041542B43474E535057523D300D00B1
:1001F00041542B43474E53484F540D0041542B4319
:10020000474E53434F4C440D0041542B43474E53EC
:10021000494E460D002B43474E53494E463A203136
:100220002C312C0041542B43474E535057523D31F3
:100230000D0041542B4342430D000A47505354498B
:100240004D453D000A424154544552595B6D565D3F
:100250003D00204C415449545544453D00204C4FED
:100260004E475449545544453D000D0A002C000D9D
:100270000A20687474703A2F2F6D6170732E676F47
:100280006F676C652E636F6D2F6D6170733F713D8D
:100290000041542B434E45544C494748543D300D82
:1002A00000415426570D0041542B4950523D3936D8
:1002B00030300D0041542B4353434C4B3D300D0027
:1002C00041542B4353434C4B3D310D0041542B4380
:1002D00046554E3D310D0041542B4346554E3D345D
:1002E0000D00220A0D004D4F44452053544F5050ED
:1002F000454400414C4552542C20504F53495449D9
:100300004F4E204348414E47454420544F203A2009
:1003100020004854545020204D4F44452041435420
:100320004956415445442E2E20504C4541534520BA
:10033000574149542035204D494E5554455320428C
:1003400045464F5245204E45585420434F4D4D4150
:100350004E440A004755415244204D4F44452041E8
:1003600043544956415445442E2E20504C45415348
:100370004520574149542035204D494E5554455349
:10038000204245464F5245204E45585420434F4D3C
:100390004D414E440A00414354495641544544207E
:1003A00043414C4C532046524F4D20004D554C5428
:1003B00049504C45204D4541535552454D454E54AD
:1003C0005320494E2050524F47524553532E2E2012
:1003D000504C454153452057414954203235204D1A
:1003E000494E55544553204245464F5245204E45AF
:1003F000585420434F4D4D414E440A0053494E47F7
:100400004C45204D4541535552454D454E5420498C
:100410004E2050524F47524553532E2E2E20504CB3
:1004200045415345205741495420372D38204D49E7
:100430004E55544553204245464F5245204E45584F
:100440005420434F4D4D414E440A00434F4D4D41C2
:100450004E442041434345505445440A00485454B7
:10046000500053544F5000475541524400414354AB
:1004700049564154450053494E474C45004D554C53
:10048000544900434D543A0041542B434E4D493D8D
:10049000312C322C302C302C300D0041542B434D5C
:1004A00047443D340D0041542B434D47533D2200FA
:1004B00041542B434D47463D310D0041542B43469B
:1004C0004752493D310D0041542B4350494E3D2286
:1004D00031313131220D00415445300D0041542B52
:1004E0004350494E3F0D002B4350494E3A2053494B
:1004F0004D2050494E002B4350494E3A2052454121
:1005000044590041542B435245473D300D0041545E
:100510002B435245473F0D002B435245473A20306D
:100520002C35002B435245473A20302C31004F4B9D
:100530000041540041540D0011241FBECFEFD8E0FC
:10054000DEBFCDBF13E0A0E0B1E0E8E9FFE102C00B
:1005500005900D92A632B107D9F723E0A6E2B3E0E9
:1005600001C01D92A935B207E1F70E9467060C94FD
:10057000CA0F0C94000082E08093C0001092C50066
:100580008CE08093C400E1ECF0E08081886080839F
:10059000808180618083E2ECF0E0808186608083EE
:1005A00008959091C00095FFFCCF8093C6000895F8
:1005B0008091C00087FFFCCF8091C60008950F9303
:1005C0001F93CF93DF93EC01DC0190E020E0241730
:1005D00049F13D91FB01E90FF11D8081381320C0E5
:1005E00090E0822F890FFE01E80FF11D3081092F65
:1005F00010E031110BC0FB0101900020E9F73197A9
:10060000E61BF70B0E171F0759F40EC0FB01E00F96
:10061000F11F8081882379F33813EDCF9F5FE1CFFD
:100620002F5FD5CF80E001C081E0DF91CF911F9196
:100630000F910895CF93DF93EC018991882319F0EE
:100640000E94D102FACFDF91CF910895CF93DF932B
:10065000EC01CE01FE012491222331F02196FC0110
:1006600084910E94D102F5CFDF91CF910895CF936D
:1006700010925603C6E90E94D802282F30E02A3093
:10068000310579F02D30310561F0E0915603F0E04D
:10069000E458FD4F8083809156038F5F809356030B
:1006A0000DC080915603882349F0E0915603F0E095
:1006B000E458FD4F10821092560302C0C150D9F683
:1006C00081E0CF910895CF9310925303C6E90E9421
:1006D000D802282F30E02A30310579F02D3031054D
:1006E00061F0E0915303F0E0E655FE4F8083809186
:1006F00053038F5F809353030DC08091530388236E
:1007000049F0E0915303F0E0E655FE4F108210925D
:10071000530302C0C150D9F681E0CF9108951092E1
:1007200055031092560380E0E0915603F0E0E45840
:10073000FD4F2081909156039F5F909356038F5FEA
:100740002A3311F0863981F7E0915603F0E0E4583E
:10075000FD4F2081909156039F5F909356038F5FCA
:10076000223211F0863980F3E0915603F0E0E4582C
:10077000FD4F2081909156039F5F90935603E09127
:100780005503F0E0E859FD4F2083909155039F5F9A
:10079000909355038F5F223211F0863928F3E09150
:1007A0005503F0E0E959FD4F108210925503109265
:1007B000560381E00895CF9310922703C0E00E9472
:1007C000D802CF5F8C3219F0C634C9F72BC0C634BB
:1007D00049F10E94D802CF5F8C3211F0C634C9F7BC
:1007E0000E94D802282F30E0E0912703F0E0E0508B
:1007F000FF4F8083809127038F5F80932703CF5F14
:100800002A30310529F02D30310511F0C63440F37E
:10081000E0912703F0E0E150FF4F10821092270390
:1008200081E001C080E0CF910895CF9310925103F1
:100830001092520389E092E00E942603C0E00E94D9
:10084000D802CF5F8A3319F0C431C9F767C0C43109
:1008500009F464C00E94D802CF5F8C3211F0C6390F
:10086000C9F70E94D802CF5F8C3211F0C639C8F3A5
:100870000E94D802E0915003F0E0E259FE4F8083DD
:10088000909150039F5F90935003CF5F8C3211F093
:10089000C63970F3E0915003F0E0E359FE4F108247
:1008A000109250030E94D802E0915203F0E0EA5601
:1008B000FE4F8083909152039F5F90935203CF5FCE
:1008C0008C3211F0C63970F3E0915203F0E0EB5630
:1008D000FE4F1082109252030E94D802E091510301
:1008E000F0E0EE57FE4F8083909151039F5F90930D
:1008F0005103CF5F8C3211F0C63970F3E091510390
:10090000F0E0EF57FE4F1082109251030E94D80280
:10091000CF5F8C3229F0C639C8F302C080E001C035
:1009200081E0CF910895882361F026E033E14EEA1B
:100930004A95F1F73A95E1F72A95D1F700C0815031
:10094000F2CF0895CF93DF9380912603813021F079
:1009500080912603853091F481E090E00E94930419
:1009600084E292E00E94260382E090E00E949304D9
:100970008CEF91E00E942603D0E00FC081E090E070
:100980000E949304F9CF89E092E00E9426030E941E
:10099000370381110BC0D431E0F4809126038F3FDF
:1009A00091F38FE090E00E949304EDCF4FE050E090
:1009B00065E172E088E293E00E946F0D4AEA68E226
:1009C00073E08CE792E00E94DF02C82F8130F1F5DE
:1009D00012C082E090E00E9493048091260381304F
:1009E00041F482EE91E00E94260381E090E00E94B3
:1009F0009304C0E031C045E150E06DEC71E08AE560
:100A000091E00E946F0D45E150E06DEC71E086E4ED
:100A100091E00E946F0D45E150E06DEC71E082E3E2
:100A200091E00E946F0D0E94150482E090E00E9408
:100A3000930480912603813079F482EE91E00E9444
:100A4000260381E090E00E94930406C08091260373
:100A50008F3F79F2DF5F9FCF8C2FDF91CF91089589
:100A600020E12A95F1F700C00895CF9384E395E043
:100A70000E9426030E94370343E050E0882319F0C8
:100A80006EE275E002C061E375E088E293E00E94E7
:100A90006F0D4AEA68E273E08CE792E00E94DF02A1
:100AA000C1E0813009F0C0E081E00E949304CC23D2
:100AB000E9F281E00E94930487ED94E00E9426030E
:100AC00081E00E94930481E0CF910895CF9382E06A
:100AD0000E9493048DED94E00E9426030E94370348
:100AE0008823A9F34DE050E066EF74E088E293E0DC
:100AF0000E946F0D4AEA68E273E08CE792E00E9480
:100B0000DF02C82F4FE050E067EE74E088E293E028
:100B10000E946F0D4AEA68E273E08CE792E00E945F
:100B2000DF02813049F40E94930487EC94E00E9434
:100B3000260381E00E949304C13049F681E0CF9101
:100B40000895CF93DF9381E00E9493048EE095E0B7
:100B50000E9426030E943703811109C081E00E9490
:100B600093048CEC92E00E942603C8E17CC04BE029
:100B700050E063E275E088E293E00E946F0D4AEA7C
:100B800068E273E08CE792E00E94DF02813011F4AA
:100B9000C1E075C04BE050E068E175E088E293E0A9
:100BA0000E946F0D4AEA68E273E08CE792E00E94CF
:100BB000DF02813099F6ECCF4BE050E063E275E064
:100BC00088E293E00E946F0D4AEA68E273E08CE7E6
:100BD00092E00E94DF02D82F4BE050E068E175E020
:100BE00088E293E00E946F0D4AEA68E273E08CE7C6
:100BF00092E00E94DF02813059F2D13049F281E067
:100C00000E94930487ED92E00E94260381E00E94F7
:100C1000930482EE91E00E94260381E00E949304F7
:100C200080EC92E00E942603DEE18CE30E949304B4
:100C3000D150D9F7459884E395E00E94260381E0DE
:100C40000E94930484EB92E00E94260381E00E94BC
:100C50009304459A81E00E9493048CEC92E00E94F8
:100C60002603C15061F088E70E9493048EE095E06E
:100C70000E9426030E943703882399F39DCF8C2F6F
:100C8000DF91CF91089583B7817F846083BF83B75D
:100C9000816083BF52985A9AF894E9E6F0E0808127
:100CA0008D7F808380818E7F8083E89A7894889579
:100CB00083B78E7F83BF08951F920F920FB60F9256
:100CC0001124E8980F900FBE0F901F901895109266
:100CD000260352985A9A3D9A459A45E150E06DECA8
:100CE00071E08EE191E00E946F0D45E150E06DEC06
:100CF00071E08AE591E00E946F0D45E150E06DECF6
:100D000071E08AE091E00E946F0D45E150E06DECEA
:100D100071E086E491E00E946F0D45E150E06DECDA
:100D200071E082E391E00E946F0D0E94BB028AE0B5
:100D30000E94930487ED94E00E94260381E00E94C4
:100D400093040E94350581E00E94930487EA92E0B3
:100D50000E94260381E00E9493048CEC92E00E94A2
:100D6000260381E00E94930483E095E00E9426031D
:100D700081E00E94930481EA92E00E94260383E0CE
:100D80000E9493040E94660581E00E94930480EB18
:100D900094E00E94260381E00E9493048BE994E092
:100DA0000E9426038AE50E9493040E94A1051EEF7B
:100DB0000FEFFF24F3941092260381E00E94930426
:100DC00080EB94E00E94260381E00E94930488E86F
:100DD00094E00E94260381E00E94930482EE91E059
:100DE0000E94260381E00E94930480EC92E00E941E
:100DF000260382E00E9493048091C00087FF03C015
:100E00008091C600F9CF90E8892E98EA992E92E158
:100E1000A92EBB24B3948091C00087FD30C00E94EE
:100E2000300581E0881A9108A108B108A1F745981A
:100E300084E395E00E94260381E00E94930484EB02
:100E400092E00E94260381E00E949304459A81E08B
:100E50000E9493040E94A10581E00E94930480EC0B
:100E600092E00E94260381E00E94930410922603E0
:100E70008091C00087FFC7CF8091C600F9CF0E9444
:100E80003703882309F478C245E050E063E874E052
:100E900088E293E00E946F0D4AEA68E273E08CE713
:100EA00092E00E94DF02813059F1459884E395E099
:100EB0000E94260381E00E94930484EB92E00E944A
:100EC000260381E00E949304459A81E00E949304E6
:100ED0000E9466050E94A10581E00E94930480EBB8
:100EE00094E00E94260381E00E9493048BE994E041
:100EF0000E94260382E00E949304109226035BCF97
:100F00000E9463030E948F031092260346E050E084
:100F10006DE774E088E293E00E946F0D8AEA91E049
:100F20000E94780D4AEA68E273E00E94DF02813095
:100F300009F046C0459884E395E00E94260381E0CD
:100F40000E94930484EB92E00E94260381E00E94B9
:100F50009304459A81E00E94930480EB94E00E9400
:100F6000260381E00E94930486EA94E00E9426030F
:100F700088E692E00E941A0382EE92E00E94260325
:100F800081E00E9493048CEA93E00E9426038AE1A8
:100F90000E94D1028AE00E94930480EB94E00E94B8
:100FA000260381E00E9493048BE994E00E942603CB
:100FB00082E00E94930485E080932603C1E001C093
:100FC000C0E047E050E066E774E088E293E00E940A
:100FD0006F0D8AEA91E00E94780D4AEA68E273E0B8
:100FE0000E94DF02D82F813009F044C0459884E385
:100FF00095E00E94260381E00E94930484EB92E036
:101000000E94260381E00E949304459A81E00E9499
:10101000930480EB94E00E94260381E00E949304F5
:1010200086EA94E00E94260388E692E00E941A0372
:1010300082EE92E00E94260381E00E9493048CEFEE
:1010400093E00E9426038AE10E94D1028AE00E9476
:10105000930480EB94E00E94260381E00E949304B5
:101060008BE994E00E94260382E00E949304D093CF
:101070002603C1E049E050E06DE674E088E293E0C9
:101080000E946F0D8AEA91E00E94780D4AEA68E2B8
:1010900073E00E94DF02813009F052C0459884E37A
:1010A00095E00E94260381E00E94930484EB92E085
:1010B0000E94260381E00E949304459A81E00E94E9
:1010C000930444E150E060E070E088E692E00E9422
:1010D000610F80EB94E00E94260381E00E9493045C
:1010E00086EA94E00E94260388E692E00E941A03B2
:1010F00082EE92E00E94260381E00E94930486E93A
:1011000093E00E94260388E692E00E941A038AE197
:101110000E94D1028AE00E94930480EB94E00E9436
:10112000260381E00E9493048BE994E00E94260349
:1011300082E00E94930410922603D1E0C0E001C037
:10114000DC2F46E050E067E674E088E293E00E941E
:101150006F0D8AEA91E00E94780D4AEA68E273E036
:101160000E94DF02813009F053C0459884E395E086
:101170000E94260381E00E94930484EB92E00E9487
:10118000260381E00E949304459A81E00E94930423
:1011900080EB94E00E94260381E00E94930486EA9B
:1011A00094E00E94260388E692E00E941A0382EEF1
:1011B00092E00E94260381E00E94930484E593E07C
:1011C0000E9426038AE10E94D1028AE00E949304D1
:1011D00080EB94E00E94260381E00E9493048BE957
:1011E00094E00E94260382E00E9493040093260369
:1011F00084E292E00E94260382E00E9493048CEF36
:1012000091E00E94260381E00E949304D1E0C1E0B6
:1012100045E050E06DE574E088E293E00E946F0DD8
:101220008AEA91E00E94780D4AEA68E273E00E943F
:10123000DF02813009F09AC0459884E395E00E946E
:10124000260381E00E94930484EB92E00E9426032F
:1012500081E00E949304459A81E00E94930480EB10
:1012600094E00E94260381E00E94930486EA94E0C1
:101270000E94260388E692E00E941A0382EE92E022
:101280000E94260381E00E94930482E193E00E9481
:1012900026038AE10E94D1028AE00E94930480EB37
:1012A00094E00E94260381E00E9493048BE994E07D
:1012B0000E94260382E00E94930484E292E00E944E
:1012C000260382E00E9493048CEF91E00E942603A3
:1012D00081E00E949304C3E087E391E00E9426032B
:1012E00085E00E9493048DEA91E00E94260381E04C
:1012F0000E94930488E891E00E94260381E00E9406
:10130000930484E691E00E94260383E00E94930404
:1013100085E591E00E94260385E00E94930486E41F
:1013200091E00E9426030E943703882391F04CE04D
:1013300050E06BE271E088E293E00E946F0D4AEAB0
:1013400068E273E08CE792E00E94DF0291E0813076
:1013500009F090E0C15021F0992309F4BDCF03C0FA
:10136000913009F028CD1093260306C0DD2309F43F
:101370009CCDCC2309F41FCD0E94A204813009F03A
:1013800088C08BE0E2E8F1E0A6E4B1E001900D92C4
:101390008A95E1F7109251018AE0E6E9F1E0AAE5C9
:1013A000B1E001900D928A95E1F7109264018EE010
:1013B000EEE6F1E0A2E3B1E001900D928A95E1F74B
:1013C00010924001809126038F3F09F464C0809100
:1013D00026038E3F09F45FC081E00E94930482E3FC
:1013E00092E00E9426030E94DB0381E00E949304A6
:1013F00080EB94E00E94260381E00E94930486EA39
:1014000094E00E94260388E692E00E941A0382EE8E
:1014100092E00E94260381E00E9493048DE592E011
:101420000E94260386E491E00E941A0382E592E07E
:101430000E9426038AE591E00E941A0384E492E068
:101440000E94260380E091E00E941A038AE392E062
:101450000E94260382E391E00E941A038FE692E045
:101460000E9426038AE591E00E941A038DE692E02D
:101470000E94260382E891E00E941A038AE692E025
:101480000E94260381E00E9493048AE10E94D10217
:1014900002C0C0E001C0C1E08EE191E00E946B0D8E
:1014A0004C018AE091E00E946B0D5C01C13009F0B3
:1014B00017C1809126038F3F09F0CEC0B401990C6B
:1014C000880B990B0E94B60C20E030E0A9010E9425
:1014D000AF0C882309F4C0C0B501BB0C880B990B75
:1014E0000E94B60C20E030E0A9010E94AF0C8823D6
:1014F00009F4B2C08EE191E00E946B0DEC018AE527
:1015000091E00E946B0DBE01681B790B072E000C49
:10151000880B990B0E94B60C4B015C018AE091E0AC
:101520000E946B0DEC0186E491E00E946B0DBE0100
:10153000681B790B072E000C880B990B0E94B60CC8
:101540002B013C0120E030E0A901C501B4010E945B
:10155000AF0C87FF09C0A501940160E070E0CB01EA
:101560000E94420C4B015C0120E030E0A901C30164
:10157000B2010E94AF0C87FF09C0A301920160E095
:1015800070E0CB010E94420C2B013C012CE732EFB2
:1015900040E35BE3C301B2010E94660D18165CF0E4
:1015A0002CE732EF40E35BE3C501B4010E94660D16
:1015B00018160CF051C081E00E94930480EB94E077
:1015C0000E94260381E00E94930486EA94E00E9430
:1015D000260388E692E00E941A0382EE92E00E94BF
:1015E000260381E00E94930483EF92E00E94260389
:1015F0008FE692E00E9426038AE591E00E941A039A
:101600008DE692E00E94260386E491E00E941A0390
:101610008AE692E00E94260381E00E9493048AE118
:101620000E94D1028AE00E949304F092260382EE87
:1016300091E00E94260381E00E94930480EB94E0F5
:101640000E94260381E00E9493048BE994E00E94AB
:10165000260382E00E949304809126038E3F09F0C6
:101660003FC081E00E9493048DE191E00E94260337
:1016700083E00E94930487E091E00E94260382E0C9
:101680000E9493048CEE90E00E94260388ED90E087
:101690000E9426038BEC90E00E94260386E491E0F2
:1016A0000E941A0380EC90E00E9426038AE591E0F4
:1016B0000E941A0389EB90E00E94260382E391E0E6
:1016C0000E941A0385EB90E00E94260382E00E94AC
:1016D000930483EA90E00E9426038AE00E94930428
:1016E0008AE0EAE5F1E0AEE1B1E001900D928A9581
:1016F000E1F78BE0E6E4F1E0AAE0B1E001900D92C1
:101700008A95E1F710921501109228018091260325
:101710008F3F49F0809126038E3F29F08091260368
:1017200081508093260380912603882369F080915D
:1017300026038E3F48F48CE30E9493048CE30E94BE
:1017400093048CE30E94930480912603811103C0CB
:101750008AE00E949304809126038F3F29F08091B4
:1017600026038E3F09F089C081E00E949304809196
:10177000C00087FF03C08091C600F9CF812C85E3AC
:10178000982E8CE0A82EB12C0E9430058091C000CC
:1017900091E0891A9108A108B10809F46EC087FF89
:1017A000F3CF0E943703882309F467C045E050E077
:1017B00063E874E088E293E00E946F0D4AEA68E211
:1017C00073E08CE792E00E94DF02813009F055C09F
:1017D0000E9463030E948F0345E050E062E674E0DC
:1017E00088E293E00E946F0D8AEA91E00E94780DF2
:1017F0004AEA68E273E00E94DF028130F1F580EB93
:1018000094E00E94260381E00E94930486EA94E01B
:101810000E94260388E692E00E941A0382EE92E07C
:101820000E94260381E00E94930486EE92E00E94CB
:1018300026038AE10E94D1028AE00E94930480EB91
:1018400094E00E94260381E00E9493048BE994E0D7
:101850000E94260382E00E94930482EE91E00E949F
:10186000260381E00E9493041092260387E391E00F
:101870000E94260385E00E94930480912603811133
:101880007BCD99CA5058BB27AA270E945A0C0C94AA
:101890002C0D0E941E0D38F00E94250D20F039F409
:1018A0009F3F19F426F40C941B0D0EF4E095E7FB12
:1018B0000C94150DE92F0E943D0D58F3BA176207DD
:1018C00073078407950720F079F4A6F50C945F0D53
:1018D0000EF4E0950B2EBA2FA02D0B01B90190014B
:1018E0000C01CA01A0011124FF27591B99F0593F8F
:1018F00050F4503E68F11A16F040A22F232F342FD7
:101900004427585FF3CF469537952795A795F04024
:101910005395C9F77EF41F16BA0B620B730B840B39
:10192000BAF09150A1F0FF0FBB1F661F771F881FF1
:10193000C2F70EC0BA0F621F731F841F48F4879549
:1019400077956795B795F7959E3F08F0B0CF93953B
:10195000880F08F09927EE0F9795879508950E94B4
:10196000F10C08F481E00895E89409C097FB3EF477
:1019700090958095709561957F4F8F4F9F4F9923DC
:10198000A9F0F92F96E9BB279395F695879577955A
:101990006795B795F111F8CFFAF4BB0F11F460FF1A
:1019A0001BC06F5F7F4F8F4F9F4F16C0882311F072
:1019B00096E911C0772321F09EE8872F762F05C086
:1019C000662371F096E8862F70E060E02AF09A9521
:1019D000660F771F881FDAF7880F9695879597F916
:1019E0000895990F0008550FAA0BE0E8FEEF1616B0
:1019F0001706E807F907C0F012161306E407F50703
:101A000098F0621B730B840B950B39F40A2661F076
:101A1000232B242B252B21F408950A2609F4A14019
:101A2000A6958FEF811D811D089597F99F6780E826
:101A300070E060E008959FEF80EC089500240A9420
:101A40001616170618060906089500240A94121699
:101A50001306140605060895092E0394000C11F4CC
:101A6000882352F0BB0F40F4BF2B11F460FF04C079
:101A70006F5F7F4F8F4F9F4F089557FD9058440FD2
:101A8000551F59F05F3F71F04795880F97FB991FDD
:101A900061F09F3F79F0879508951216130614069A
:101AA000551FF2CF4695F1DF08C016161706180627
:101AB000991FF1CF86957105610508940895E89402
:101AC000BB2766277727CB0197F908950E94F10C71
:101AD00008F48FEF0895662777270C94820DFB0199
:101AE000DC0102C005900D9241505040D8F7089596
:101AF000DC016C9161566A3108F0605E6F5B6D933A
:101B0000C1F70895A0E0B0E0E8E8FDE00C948A0F8A
:101B1000EC016B016115710519F0FB019183808364
:101B20007E01FFEFEF1AFF0A0881802F90E00E94EC
:101B3000D00E892B11F0E701F3CF0D3239F47E017D
:101B400082E0E80EF11C098111E008C00B3229F493
:101B50007E0192E0E90EF11C098110E0E701219776
:101B600043E050E060E770E0CE010E94D90E892B7F
:101B7000C1F4239645E050E06BE670E0CE010E9490
:101B8000D90E892B09F42596C114D10419F0F60158
:101B9000D183C0831111F6C060E070E080E89FE758
:101BA000FAC043E050E068E670E0CE010E94D90E32
:101BB000892B59F4C114D10409F4E9C0F2E0EF0E05
:101BC000F11CF601F182E082E2C020E030E0A901E0
:101BD000C0E0D0E0F70180EDA82EA00E89E08A15C4
:101BE00030F1912F9260B92E812F887012FF04C0BE
:101BF000811124C0219622C081112197A5E0B0E077
:101C00000E94790FDC01CB01880F991FAA1FBB1F0F
:101C10009C01AD012A0D311D411D511D283989E955
:101C20003807480789E1580748F0166006C09EEF5C
:101C3000A9120AC013FD40C01860B12E8FEFE81A38
:101C4000F80A00811B2DC6CF802F8F7D8534A1F52A
:101C500080818D3211F4106106C08B3221F03196F3
:101C600061E070E004C08181329662E070E08053F0
:101C70008A3018F0E61BF70B1FC060E070E0603898
:101C80009CE079075CF4DB01AA0FBB1FAA0FBB1F06
:101C90006A0F7B1F660F771F680F711D3196DF017A
:101CA00011978C9180538A3050F314FF03C07195C3
:101CB00061957109C60FD71F11FF08C0C114D10467
:101CC00029F0CF010197F60191838083CA01B90100
:101CD0000E94B40C212F2370233019F04B015C01BA
:101CE00006C04B015C01B7FAB094B7F8B09420E09D
:101CF00030E0A901C501B4010E94AF0C882309F4AA
:101D00003EC0D7FF06C0D195C195D10907E810E0C4
:101D100002C00FE910E06801F8E1CF1AD10890E2A3
:101D2000E92EF12CCE15DF0574F0F80125913591DF
:101D300045915491C501B4010E94F10E4B015C0123
:101D4000CE19DF09EFCF04501109F594E7940C1573
:101D50001D0541F78A2D880F8B2D881F8F3F49F075
:101D600020E030E0A901C501B4010E94AF0C81114F
:101D700006C082E290E09093580380935703C50118
:101D8000B40109C060E070E080E89FEF04C060E04B
:101D900070E080EC9FE7CDB7DEB7ECE00C94A60FC7
:101DA00091110C945E0F803219F089508550C8F75C
:101DB0000895FB01DC014150504088F08D91813441
:101DC0001CF08B350CF4805E659161341CF06B3532
:101DD0000CF4605E861B611171F3990B0895881BEA
:101DE000FCCF0E94040F0C942C0D0E941E0D38F0A5
:101DF0000E94250D20F0952311F00C94150D0C94E4
:101E00001B0D11240C94600D0E943D0D70F3959FE5
:101E1000C1F3950F50E0551F629FF001729FBB27E1
:101E2000F00DB11D639FAA27F00DB11DAA1F649F7D
:101E30006627B00DA11D661F829F2227B00DA11D30
:101E4000621F739FB00DA11D621F839FA00D611DB6
:101E5000221F749F3327A00D611D231F849F600DD7
:101E6000211D822F762F6A2F11249F5750409AF000
:101E7000F1F088234AF0EE0FFF1FBB1F661F771F8C
:101E8000881F91505040A9F79E3F510580F00C9457
:101E9000150D0C94600D5F3FE4F3983ED4F38695E6
:101EA00077956795B795F795E7959F5FC1F7FE2BF7
:101EB000880F911D9695879597F9089599278827FA
:101EC0000895DC01CB0103C02D910E946C0F41509D
:101ED0005040D0F70895262FF999FECF1FBA92BD32
:101EE00081BD20BD0FB6F894FA9AF99A0FBE0196FB
:101EF00008950E94BB0FA59F900DB49F900DA49FC5
:101F0000800D911D112408952F923F924F925F9260
:101F10006F927F928F929F92AF92BF92CF92DF92F9
:101F2000EF92FF920F931F93CF93DF93CDB7DEB75E
:101F3000CA1BDB0B0FB6F894DEBF0FBECDBF0994F2
:101F40002A88398848885F846E847D848C849B8449
:101F5000AA84B984C884DF80EE80FD800C811B8157
:101F6000AA81B981CE0FD11D0FB6F894DEBF0FBE86
:101F7000CDBFED010895A29FB001B39FC001A39F03
:101F8000700D811D1124911DB29F700D811D1124B2
:081F9000911D0895F894FFCFA4
:101F98003030303030303030303030303030303039
:101FA8003030303030303030303030303030303029
:101FB8003030303030303030303030303030303019
:101FC8003030303030303030303030303030303009
:101FD80030303030303030303030303030303030F9
:101FE80030303030303030303030303030303030E9
:101FF80030303030303030303030303030303030D9
:1020080030303030303030303030303030303030C8
:1020180030303030303030303030303030303030B8
:1020280030303030303030303030303030303030A8
:102038003030303030303030303031323334353683
:102048003738393031323334353637383930313240
:10205800333435363738393031323334353637382A
:102068003930313233343536373839303132333428
:102078003536373839303132333435363738393008
:102088003132333435363738393031323334353606
:1020980037383930313233343536373839303132F0
:1020A80033343536373839303132333435363738DA
:1020B80039303132333435363738393031323334D8
:1020C80035363738393031323334353637383930B8
:1020D80031323334353637383930313233343536B6
:1020E80037383930313233343536373839303132A0
:1020F800333435363738393031323334353637388A
:102108003930313233343536373839303132333487
:102118003536373839303132333435363738393067
:102128003132333435363738393031323334353665
:10213800373839303132333435363738393031324F
:102148003334353637383930313233343536373839
:102158003930313233343536373839303132333437
:102168003536373839303132333435363738393017
:102178003132333435363738393031323334353615
:1021880037383930313233343536373839303132FF
:1021980033343536373839303132333435363738E9
:1021A80039303132333435363738393031323334E7
:0621B800353637383930DE
:00000001FF
