:100000000C94E2010C9487050C94FF010C94FF0101
:100010000C94FF010C94FF010C94FF010C94FF0160
:100020000C94FF010C94FF010C94FF010C94FF0150
:100030000C94FF010C94FF010C94FF010C94FF0140
:100040000C94FF010C94FF010C94FF010C94FF0130
:100050000C94FF010C94FF010C94FF010C94FF0120
:100060000C94FF010C94FF014E414E494E495459E6
:10007000494E46CDCCCC3D0AD7233C17B7D1387773
:10008000CC2B329595E6241FB14F0A000020410089
:1000900000C84200401C4620BCBE4CCA1B0E5AAED3
:1000A000C59D74303030303030303030303030300A
:1000B000303030303030000041542B43474E5350E5
:1000C00057523D300D0041542B43474E53484F5437
:1000D0000D0041542B43474E53434F4C440D0041B8
:1000E000542B43474E53494E460D002B43474E5326
:1000F000494E463A20312C312C0041542B43474E77
:10010000535057523D310D0041542B4342430D0093
:100110000A424154544552595B6D565D3D00204C96
:10012000415449545544453D00204C4F4E47544995
:10013000545544453D000D0A002C000D0A206874FA
:1001400074703A2F2F6D6170732E676F6F676C65D7
:100150002E636F6D2F6D6170733F713D0041542BA5
:10016000434E45544C494748543D300D00415426B8
:10017000570D0041542B4950523D393630300D0057
:1001800041542B4353434C4B3D300D0041542B43C2
:1001900053434C4B3D310D0041542B4346554E3D8E
:1001A000310D0041542B4346554E3D340D00220A7B
:1001B0000D004755415244204D4F44452053544F64
:1001C0005050454400414C4552542C20504F534907
:1001D00054494F4E204348414E47454420544F20F8
:1001E0003A2020004755415244204D4F444520417C
:1001F00043544956415445442E2E20504C454153BA
:100200004520574149542035204D494E55544553BA
:10021000204245464F5245204E45585420434F4DAD
:100220004D414E440A0041435449564154454420EF
:1002300043414C4C532046524F4D20004D554C5499
:1002400049504C45204D4541535552454D454E541E
:100250005320494E2050524F47524553532E2E2083
:10026000504C454153452057414954203235204D8B
:10027000494E55544553204245464F5245204E4520
:10028000585420434F4D4D414E440A0053494E4768
:100290004C45204D4541535552454D454E542049FE
:1002A0004E2050524F47524553532E2E2E20504C25
:1002B00045415345205741495420372D38204D4959
:1002C0004E55544553204245464F5245204E4558C1
:1002D0005420434F4D4D414E440A00434F4D4D4134
:1002E0004E442041434345505445440A0053544F23
:1002F00050004755415244004143544956415445EA
:100300000053494E474C45004D554C544900434D10
:10031000543A0041542B434E4D493D312C322C3040
:100320002C302C300D0041542B434D47443D340DAF
:100330000041542B434D47533D220041542B434D24
:1003400047463D310D0041542B43464752493D310C
:100350000D0041542B4350494E3D22313131312261
:100360000D00415445300D0041542B4350494E3F40
:100370000D002B4350494E3A2053494D2050494ED1
:10038000002B4350494E3A205245414459004154B4
:100390002B435245473D300D0041542B43524547B6
:1003A0003F0D002B435245473A20302C35002B435C
:1003B0005245473A20302C31004F4B004154004108
:1003C000540D000011241FBECFEFD8E0DEBFCDBF1B
:1003D00012E0A0E0B1E0EAEAFBE102C005900D9274
:1003E000AE3FB107D9F723E0AEEFB2E001C01D92F6
:1003F000A033B207E1F70E9492050C94D30D0C9440
:10040000000082E08093C0001092C5008CE08093D1
:10041000C400E1ECF0E080818860808380818061AD
:100420008083E2ECF0E08081866080830895909183
:10043000C00095FFFCCF8093C60008958091C00056
:1004400087FFFCCF8091C60008950F931F93CF9331
:10045000DF93EC01DC0190E020E0241749F13D91AD
:10046000FB01E90FF11D8081381320C090E0822F3D
:10047000890FFE01E80FF11D3081092F10E03111C5
:100480000BC0FB0101900020E9F73197E61BF70B49
:100490000E171F0759F40EC0FB01E00FF11F8081FA
:1004A000882379F33813EDCF9F5FE1CF2F5FD5CF4E
:1004B00080E001C081E0DF91CF911F910F910895FD
:1004C000CF93DF93EC018991882319F00E941702E2
:1004D000FACFDF91CF910895CF93DF93EC01CE0156
:1004E000FE012491222331F02196FC0184910E9487
:1004F0001702F5CFDF91CF910895CF9310922D037E
:10050000C6E90E941E02282F30E02A30310579F01A
:100510002D30310561F0E0912D03F0E0EC5AFD4FF4
:10052000808380912D038F5F80932D030DC0809178
:100530002D03882349F0E0912D03F0E0EC5AFD4FA4
:10054000108210922D0302C0C150D9F681E0CF91E4
:100550000895CF9310922A03C6E90E941E02282F05
:1005600030E02A30310579F02D30310561F0E0912D
:100570002A03F0E0EE57FE4F808380912A038F5FBD
:1005800080932A030DC080912A03882349F0E091CB
:100590002A03F0E0EE57FE4F108210922A0302C0A9
:1005A000C150D9F681E0CF91089510922C0310929A
:1005B0002D0380E0E0912D03F0E0EC5AFD4F208107
:1005C00090912D039F5F90932D038F5F2A3311F03D
:1005D000863981F7E0912D03F0E0EC5AFD4F208140
:1005E00090912D039F5F90932D038F5F223211F026
:1005F000863980F3E0912D03F0E0EC5AFD4F208125
:1006000090912D039F5F90932D03E0912C03F0E0D8
:10061000E05CFD4F208390912C039F5F90932C030F
:100620008F5F223211F0863928F3E0912C03F0E03D
:10063000E15CFD4F108210922C0310922D0381E09B
:100640000895CF931092FF02C0E00E941E02CF5F78
:100650008C3219F0C634C9F72BC0C63449F10E9458
:100660001E02CF5F8C3211F0C634C9F70E941E0201
:10067000282F30E0E091FF02F0E0E050FF4F808350
:100680008091FF028F5F8093FF02CF5F2A30310598
:1006900029F02D30310511F0C63440F3E091FF020E
:1006A000F0E0E150FF4F10821092FF0281E001C0A4
:1006B00080E0CF910895CF931092280310922903E0
:1006C0008FED90E00E946C02C0E00E941E02CF5F9E
:1006D0008A3319F0C431C9F754C0C43109F451C088
:1006E0000E941E02CF5F8C3211F0C639C9F70E94FA
:1006F0001E02CF5F8C3211F0C639C8F30E941E0271
:10070000CF5F8C3211F0C639C8F30E941E02E0910F
:100710002903F0E0E259FE4F8083909129039F5F07
:1007200090932903CF5F8C3211F0C63970F3E091BA
:100730002903F0E0E359FE4F1082109229030E9432
:100740001E02E0912803F0E0E65AFE4F808390916C
:1007500028039F5F90932803CF5F8C3211F0C63936
:1007600070F3E0912803F0E0E75AFE4F10821092F8
:1007700028030E941E02CF5F8C3229F0C639C8F3CD
:1007800002C080E001C081E0CF910895882361F02C
:1007900026E033E14EEA4A95F1F73A95E1F72A95DA
:1007A000D1F700C08150F2CF0895CF93DF938091AD
:1007B000FE02813021F08091FE02853091F481E0CB
:1007C00090E00E94C6038AEF90E00E946C0282E0F3
:1007D00090E00E94C60382ED90E00E946C02D0E09F
:1007E0000FC081E090E00E94C603F9CF8FED90E04A
:1007F0000E946C020E947D0281110BC0D431E0F492
:100800008091FE028F3F91F38FE090E00E94C6033B
:10081000EDCF4FE050E06BEE70E080E093E00E949F
:10082000780B4AEA60E073E084E592E00E942502DA
:10083000C82F8130B1F512C082E090E00E94C6035B
:100840008091FE02813041F488EB90E00E946C02BE
:1008500081E090E00E94C603C0E029C045E150E07D
:1008600063EA70E086E491E00E94780B45E150E095
:1008700063EA70E082E391E00E94780B0E945B03E0
:1008800082E090E00E94C6038091FE02813079F4FC
:1008900088EB90E00E946C0281E090E00E94C60329
:1008A00006C08091FE028F3FB9F2DF5FA7CF8C2F89
:1008B000DF91CF91089520E12A95F1F700C00895C6
:1008C000CF938FEB93E00E946C020E947D0243E085
:1008D00050E0882319F069EB73E002C06CEB73E021
:1008E00080E093E00E94780B4AEA60E073E084E5E0
:1008F00092E00E942502C1E0813009F0C0E081E071
:100900000E94C603CC23E9F281E00E94C60382E67E
:1009100093E00E946C0281E00E94C60381E0CF91C7
:100920000895CF9382E00E94C60388E693E00E9478
:100930006C020E947D028823A9F34DE050E061E83B
:1009400073E080E093E00E94780B4AEA60E073E095
:1009500084E592E00E942502C82F4FE050E062E754
:1009600073E080E093E00E94780B4AEA60E073E075
:1009700084E592E00E942502813049F40E94C6037A
:1009800082E593E00E946C0281E00E94C603C130C0
:1009900049F681E0CF910895CF93DF9381E00E94E3
:1009A000C60389E993E00E946C020E947D028111D6
:1009B00009C081E00E94C60388E991E00E946C02B0
:1009C000C8E17CC04BE050E06EEA73E080E093E069
:1009D0000E94780B4AEA60E073E084E592E00E94AE
:1009E0002502813011F4C1E075C04BE050E063EAAC
:1009F00073E080E093E00E94780B4AEA60E073E0E5
:100A000084E592E00E942502813099F6ECCF4BE01C
:100A100050E06EEA73E080E093E00E94780B4AEACF
:100A200060E073E084E592E00E942502D82F4BE05D
:100A300050E063EA73E080E093E00E94780B4AEABA
:100A400060E073E084E592E00E942502813059F273
:100A5000D13049F281E00E94C60383EA91E00E940E
:100A60006C0281E00E94C60388EB90E00E946C0259
:100A700081E00E94C6038CE891E00E946C02DEE1F6
:100A80008CE30E94C603D150D9F745988FEB93E0D1
:100A90000E946C0281E00E94C60380E891E00E94FF
:100AA0006C0281E00E94C603459A81E00E94C60361
:100AB00088E991E00E946C02C15061F088E70E94D1
:100AC000C60389E993E00E946C020E947D0288239C
:100AD00099F39DCF8C2FDF91CF91089583B7817FBC
:100AE000846083BF83B7816083BF52985A9AF89419
:100AF000E9E6F0E080818D7F808380818E7F808336
:100B0000E89A7894889583B78E7F83BF08951F9263
:100B10000F920FB60F921124E8980F900FBE0F900E
:100B20001F9018951092FE0252985A9A3D9A459A33
:100B300045E150E063EA70E08EE191E00E94780BBD
:100B400045E150E063EA70E086E491E00E94780BB2
:100B500045E150E063EA70E08AE091E00E94780BA2
:100B600045E150E063EA70E082E391E00E94780B97
:100B70000E9401028AE00E94C60382E693E00E947E
:100B80006C0281E00E94C6030E94600481E00E9422
:100B9000C60383E791E00E946C0281E00E94C603D5
:100BA00088E991E00E946C0281E00E94C6038EE811
:100BB00093E00E946C0281E00E94C6038DE691E002
:100BC0000E946C0283E00E94C6030E94910481E0AF
:100BD0000E94C6038BE393E00E946C0281E00E94B6
:100BE000C60386E293E00E946C028AE50E94C60377
:100BF0000E94CC04EE24EA9405E0FF24F3941092C2
:100C0000FE0281E00E94C6038BE393E00E946C0227
:100C100081E00E94C60383E193E00E946C0281E0C0
:100C20000E94C60388EB90E00E946C0281E00E9463
:100C3000C6038CE891E00E946C0282E00E94C60329
:100C40008091C00087FF03C08091C600F9CF90E873
:100C5000892E98EA992E92E1A92EBB24B394809113
:100C6000C00087FD30C00E945B0481E0881A9108B3
:100C7000A108B108A1F745988FEB93E00E946C02A0
:100C800081E00E94C60380E891E00E946C0281E04E
:100C90000E94C603459A81E00E94C6030E94CC04CC
:100CA00081E00E94C6038CE891E00E946C0281E022
:100CB0000E94C6031092FE028091C00087FFC7CF3A
:100CC0008091C600F9CF0E947D02882309F4C8C133
:100CD00045E050E06EE073E080E093E00E94780B26
:100CE0004AEA60E073E084E592E00E9425028130E8
:100CF00059F145988FEB93E00E946C0281E00E94CD
:100D0000C60380E891E00E946C0281E00E94C60365
:100D1000459A81E00E94C6030E9491040E94CC047F
:100D200081E00E94C6038BE393E00E946C0281E0A5
:100D30000E94C60386E293E00E946C0282E00E9459
:100D4000C6031092FE025BCF0E94A9020E94D50248
:100D50001092FE0246E050E068E073E080E093E02D
:100D60000E94780B82E891E00E94810B4AEA60E0E1
:100D700073E00E942502813009F045C045988FEB51
:100D800093E00E946C0281E00E94C60380E891E03B
:100D90000E946C0281E00E94C603459A81E00E9495
:100DA000C6038BE393E00E946C0281E00E94C603BD
:100DB00081E393E00E946C0280E492E00E94600272
:100DC0008EEA91E00E946C0281E00E94C6038CE3EF
:100DD00092E00E946C028AE10E9417028AE00E945F
:100DE000C6038BE393E00E946C0281E00E94C6037D
:100DF00086E293E00E946C0282E00E94C6030093A8
:100E0000FE02C1E001C0C0E047E050E061E073E0F5
:100E100080E093E00E94780B82E891E00E94810BD1
:100E20004AEA60E073E00E942502D82F813009F081
:100E300044C045988FEB93E00E946C0281E00E94D1
:100E4000C60380E891E00E946C0281E00E94C60324
:100E5000459A81E00E94C6038BE393E00E946C02F6
:100E600081E00E94C60381E393E00E946C0280E46B
:100E700092E00E9460028EEA91E00E946C0281E0A2
:100E80000E94C6038CE892E00E946C028AE10E94F4
:100E900017028AE00E94C6038BE393E00E946C0273
:100EA00081E00E94C60386E293E00E946C0282E029
:100EB0000E94C603D093FE02C1E049E050E068EF13
:100EC00072E080E093E00E94780B82E891E00E945B
:100ED000810B4AEA60E073E00E942502813009F04C
:100EE00052C045988FEB93E00E946C0281E00E9413
:100EF000C60380E891E00E946C0281E00E94C60374
:100F0000459A81E00E94C60344E150E060E070E051
:100F100080E492E00E946A0D8BE393E00E946C02F1
:100F200081E00E94C60381E393E00E946C0280E4AA
:100F300092E00E9460028EEA91E00E946C0281E0E1
:100F40000E94C60386E292E00E946C0280E492E076
:100F50000E9460028AE10E9417028AE00E94C60392
:100F60008BE393E00E946C0281E00E94C60386E25C
:100F700093E00E946C0282E00E94C6031092FE027F
:100F8000D1E0C0E001C0DC2F46E050E062EF72E04B
:100F900080E093E00E94780B82E891E00E94810B50
:100FA0004AEA60E073E00E942502813009F052C0F5
:100FB00045988FEB93E00E946C0281E00E94C6038B
:100FC00080E891E00E946C0281E00E94C603459A8D
:100FD00081E00E94C6038BE393E00E946C0281E0F3
:100FE0000E94C60381E393E00E946C0280E492E0D9
:100FF0000E9460028EEA91E00E946C0281E00E94F1
:10100000C60384EE91E00E946C028AE10E941702FE
:101010008AE00E94C6038BE393E00E946C0281E0A9
:101020000E94C60386E293E00E946C0282E00E9466
:10103000C603E092FE028AEF90E00E946C0282E01A
:101040000E94C60382ED90E00E946C0281E00E9443
:10105000C60306C0DD2309F44CCECC2309F4CFCD62
:101060000E94D503813009F070C08BE0EAE5F1E021
:10107000A2E3B1E001900D928A95E1F710923D0153
:101080008AE0EEE6F1E0A6E4B1E001900D928A95E7
:10109000E1F7109250018091FE028F3F09F457C092
:1010A00081E00E94C60388E091E00E946C020E94E9
:1010B000210381E00E94C6038BE393E00E946C024F
:1010C00081E00E94C60381E393E00E946C0280E409
:1010D00092E00E9460028EEA91E00E946C0281E040
:1010E0000E94C60389E291E00E946C0282E391E0D3
:1010F0000E9460028EE191E00E946C0286E491E021
:101100000E94600280E191E00E946C0280E091E028
:101110000E9460028BE391E00E946C0286E491E001
:101120000E94600289E391E00E946C028AE591E0EE
:101130000E94600286E391E00E946C0281E00E94BE
:10114000C6038AE10E94170202C010E001C011E04C
:101150008EE191E00E94740B5C018AE091E00E94B4
:10116000740BEC01113009F0D3C08091FE028F3F67
:1011700009F0CEC0B501BB0C880B990B0E94BF0AC9
:1011800020E030E0A9010E94B80A882309F4C0C019
:10119000BE01DD0F880B990B0E94BF0A20E030E0F2
:1011A000A9010E94B80A882309F4B2C08EE191E037
:1011B0000E94740BEC0186E491E00E94740BBE0166
:1011C000681B790B072E000C880B990B0E94BF0A35
:1011D0004B015C018AE091E00E94740BEC0182E318
:1011E00091E00E94740BBE01681B790B072E000C66
:1011F000880B990B0E94BF0A2B013C0120E030E0D4
:10120000A901C501B4010E94B80A87FF09C0A50160
:10121000940160E070E0CB010E944B0A4B015C013D
:1012200020E030E0A901C301B2010E94B80A87FFA3
:1012300009C0A301920160E070E0CB010E944B0A5B
:101240002B013C012CE732EF40E35BE3C301B20129
:101250000E946F0B18165CF02CE732EF40E35BE363
:10126000C501B4010E946F0B18160CF051C081E04B
:101270000E94C6038BE393E00E946C0281E00E940F
:10128000C60381E393E00E946C0280E492E00E9436
:1012900060028EEA91E00E946C0281E00E94C60327
:1012A00085EC91E00E946C028BE391E00E946C025D
:1012B00086E491E00E94600289E391E00E946C0262
:1012C00082E391E00E94600286E391E00E946C025A
:1012D00081E00E94C6038AE10E9417028AE00E9410
:1012E000C603F092FE0288EB90E00E946C0281E05F
:1012F0000E94C6038BE393E00E946C0281E00E948F
:10130000C60386E293E00E946C0282E00E94C6035C
:101310008AE0E6E4F1E0AEE1B1E001900D928A9559
:10132000E1F78BE0E2E3F1E0AAE0B1E001900D9299
:101330008A95E1F710921501109228018091FE0222
:101340008F3F29F08091FE0281508093FE028091B0
:10135000FE02882369F08091FE028F3F49F08CE302
:101360000E94C6038CE30E94C6038CE30E94C6035E
:101370008091FE02811103C08AE00E94C603809121
:10138000FE028F3F09F082C081E00E94C603809177
:10139000C00087FF03C08091C600F9CF812C85E390
:1013A000982E8CE0A82EB12C0E945B048091C00086
:1013B00091E0891A9108A108B10809F467C087FF74
:1013C000F3CF0E947D02882309F460C045E050E01D
:1013D0006EE073E080E093E00E94780B4AEA60E000
:1013E00073E084E592E00E942502813009F04EC04E
:1013F0000E94A9020E94D50245E050E06DEE72E025
:1014000080E093E00E94780B82E891E00E94810BDB
:101410004AEA60E073E00E9425028130B9F58BE36F
:1014200093E00E946C0281E00E94C60381E393E096
:101430000E946C0280E492E00E9460028EEA91E0D9
:101440000E946C0281E00E94C60382EB91E00E9440
:101450006C028AE10E9417028AE00E94C6038BE3B5
:1014600093E00E946C0281E00E94C60386E293E052
:101470000E946C0282E00E94C60388EB90E00E940A
:101480006C0281E00E94C6031092FE028091FE026F
:101490008111E6CDB4CB5058BB27AA270E94630A1E
:1014A0000C94350B0E94270B38F00E942E0B20F075
:1014B00039F49F3F19F426F40C94240B0EF4E095B4
:1014C000E7FB0C941E0BE92F0E94460B58F3BA174A
:1014D000620773078407950720F079F4A6F50C944A
:1014E000680B0EF4E0950B2EBA2FA02D0B01B9015D
:1014F00090010C01CA01A0011124FF27591B99F08A
:10150000593F50F4503E68F11A16F040A22F232F95
:10151000342F4427585FF3CF469537952795A795E5
:10152000F0405395C9F77EF41F16BA0B620B730B8C
:10153000840BBAF09150A1F0FF0FBB1F661F771FFD
:10154000881FC2F70EC0BA0F621F731F841F48F4B2
:10155000879577956795B795F7959E3F08F0B0CF3B
:101560009395880F08F09927EE0F97958795089522
:101570000E94FA0A08F481E00895E89409C097FBF4
:101580003EF490958095709561957F4F8F4F9F4F5A
:101590009923A9F0F92F96E9BB279395F69587959E
:1015A00077956795B795F111F8CFFAF4BB0F11F461
:1015B00060FF1BC06F5F7F4F8F4F9F4F16C0882308
:1015C00011F096E911C0772321F09EE8872F762F3E
:1015D00005C0662371F096E8862F70E060E02AF07F
:1015E0009A95660F771F881FDAF7880F969587956B
:1015F00097F90895990F0008550FAA0BE0E8FEEF40
:1016000016161706E807F907C0F012161306E407C6
:10161000F50798F0621B730B840B950B39F40A26BF
:1016200061F0232B242B252B21F408950A2609F49D
:10163000A140A6958FEF811D811D089597F99F67A1
:1016400080E870E060E008959FEF80EC089500244A
:101650000A941616170618060906089500240A9417
:1016600012161306140605060895092E0394000C9D
:1016700011F4882352F0BB0F40F4BF2B11F460FF2C
:1016800004C06F5F7F4F8F4F9F4F089557FD905855
:10169000440F551F59F05F3F71F04795880F97FB36
:1016A000991F61F09F3F79F08795089512161306F0
:1016B0001406551FF2CF4695F1DF08C0161617061F
:1016C0001806991FF1CF8695710561050894089554
:1016D000E894BB2766277727CB0197F908950E94E6
:1016E000FA0A08F48FEF0895662777270C948B0B7E
:1016F000FB01DC0102C005900D9241505040D8F72B
:101700000895DC016C9161566A3108F0605E6F5B90
:101710006D93C1F70895A0E0B0E0E1E9FBE00C941F
:10172000930DEC016B016115710519F0FB019183BB
:1017300080837E01FFEFEF1AFF0A0881802F90E07F
:101740000E94D90C892B11F0E701F3CF0D3239F447
:101750007E0182E0E80EF11C098111E008C00B3225
:1017600029F47E0192E0E90EF11C098110E0E70105
:10177000219743E050E060E770E0CE010E94E20C68
:10178000892BC1F4239645E050E06BE670E0CE0172
:101790000E94E20C892B09F42596C114D10419F09A
:1017A000F601D183C0831111F6C060E070E080E8DB
:1017B0009FE7FAC043E050E068E670E0CE010E9487
:1017C000E20C892B59F4C114D10409F4E9C0F2E008
:1017D000EF0EF11CF601F182E082E2C020E030E081
:1017E000A901C0E0D0E0F70180EDA82EA00E89E0AD
:1017F0008A1530F1912F9260B92E812F887012FFD7
:1018000004C0811124C0219622C081112197A5E036
:10181000B0E00E94820DDC01CB01880F991FAA1F46
:10182000BB1F9C01AD012A0D311D411D511D2839E1
:1018300089E93807480789E1580748F0166006C06B
:101840009EEFA9120AC013FD40C01860B12E8FEFA1
:10185000E81AF80A00811B2DC6CF802F8F7D8534B2
:10186000A1F580818D3211F4106106C08B3221F018
:10187000319661E070E004C08181329662E070E0F0
:1018800080538A3018F0E61BF70B1FC060E070E051
:1018900060389CE079075CF4DB01AA0FBB1FAA0F3C
:1018A000BB1F6A0F7B1F660F771F680F711D319674
:1018B000DF0111978C9180538A3050F314FF03C0DD
:1018C000719561957109C60FD71F11FF08C0C1142A
:1018D000D10429F0CF010197F60191838083CA01D9
:1018E000B9010E94BD0A212F2370233019F04B014A
:1018F0005C0106C04B015C01B7FAB094B7F8B09434
:1019000020E030E0A901C501B4010E94B80A882393
:1019100009F43EC0D7FF06C0D195C195D10907E8AB
:1019200010E002C00FE910E06801F8E1CF1AD10819
:1019300090E2E92EF12CCE15DF0574F0F801259127
:10194000359145915491C501B4010E94FA0C4B01A7
:101950005C01CE19DF09EFCF04501109F594E7942B
:101960000C151D0541F78A2D880F8B2D881F8F3F81
:1019700049F020E030E0A901C501B4010E94B80A95
:10198000811106C082E290E090932F0380932E0392
:10199000C501B40109C060E070E080E89FEF04C0B9
:1019A00060E070E080EC9FE7CDB7DEB7ECE00C9430
:1019B000AF0D91110C94670D803219F0895085504C
:1019C000C8F70895FB01DC014150504088F08D912B
:1019D00081341CF08B350CF4805E659161341CF011
:1019E0006B350CF4605E861B611171F3990B0895E1
:1019F000881BFCCF0E940D0D0C94350B0E94270B09
:101A000038F00E942E0B20F0952311F00C941E0B41
:101A10000C94240B11240C94690B0E94460B70F358
:101A2000959FC1F3950F50E0551F629FF001729F83
:101A3000BB27F00DB11D639FAA27F00DB11DAA1F92
:101A4000649F6627B00DA11D661F829F2227B00DDF
:101A5000A11D621F739FB00DA11D621F839FA00D6A
:101A6000611D221F749F3327A00D611D231F849FBA
:101A7000600D211D822F762F6A2F11249F57504011
:101A80009AF0F1F088234AF0EE0FFF1FBB1F661F8C
:101A9000771F881F91505040A9F79E3F510580F055
:101AA0000C941E0B0C94690B5F3FE4F3983ED4F347
:101AB000869577956795B795F795E7959F5FC1F7F9
:101AC000FE2B880F911D9695879597F90895992774
:101AD00088270895DC01CB0103C02D910E94750D6C
:101AE00041505040D0F70895262FF999FECF1FBAE4
:101AF00092BD81BD20BD0FB6F894FA9AF99A0FBE37
:101B0000019608950E94C40DA59F900DB49F900D5D
:101B1000A49F800D911D112408952F923F924F9202
:101B20005F926F927F928F929F92AF92BF92CF926D
:101B3000DF92EF92FF920F931F93CF93DF93CDB776
:101B4000DEB7CA1BDB0B0FB6F894DEBF0FBECDBFEE
:101B500009942A88398848885F846E847D848C84BF
:101B60009B84AA84B984C884DF80EE80FD800C81C8
:101B70001B81AA81B981CE0FD11D0FB6F894DEBFAB
:101B80000FBECDBFED010895A29FB001B39FC0016C
:101B9000A39F700D811D1124911DB29F700D811D99
:0A1BA0001124911D0895F894FFCF61
:101BAA00303030303030303030303030303030302B
:101BBA00303030303030303030303030303030301B
:101BCA00303030303030303030303030303030300B
:101BDA0030303030303030303030303030303030FB
:101BEA0030303030303030303030303030303030EB
:101BFA0030303030303030303030303030303030DB
:101C0A0030303030303030303030303030303030CA
:101C1A0030303030303030303030303030303030BA
:101C2A003030313233343536373839303132333473
:101C3A00353637383930313233343536373839304A
:101C4A003132333435363738393031323334353648
:101C5A003738393031323334353637383930313232
:101C6A00333435363738393031323334353637381C
:101C7A00393031323334353637383930313233341A
:101C8A0035363738393031323334353637383930FA
:101C9A0031323334353637383930313233343536F8
:101CAA0037383930313233343536373839303132E2
:101CBA0033343536373839303132333435363738CC
:101CCA0039303132333435363738393031323334CA
:101CDA0035363738393031323334353637383930AA
:101CEA0031323334353637383930313233343536A8
:101CFA003738393031323334353637383930313292
:101D0A00333435363738393031323334353637387B
:101D1A003930313233343536373839303132333479
:101D2A003536373839303132333435363738393059
:101D3A003132333435363738393031323334353657
:101D4A003738393031323334353637383930313241
:101D5A00333435363738393031323334353637382B
:101D6A003930313233343536373839303132333429
:101D7A003536373839303132333435363738393009
:101D8A003132333435363738393031323334353607
:0E1D9A00373839303132333435363738393056
:00000001FF
